{
  "contractName": "BTUTokenSale",
  "abi": [
    {
      "constant": true,
      "inputs": [],
      "name": "FROST_FOUNDERS_FACTOR",
      "outputs": [
        {
          "name": "",
          "type": "uint256"
        }
      ],
      "payable": false,
      "stateMutability": "view",
      "type": "function"
    },
    {
      "constant": true,
      "inputs": [],
      "name": "foundersReservedDefrosted",
      "outputs": [
        {
          "name": "",
          "type": "bool"
        }
      ],
      "payable": false,
      "stateMutability": "view",
      "type": "function"
    },
    {
      "constant": true,
      "inputs": [],
      "name": "FROST_COMPANY_FACTOR",
      "outputs": [
        {
          "name": "",
          "type": "uint256"
        }
      ],
      "payable": false,
      "stateMutability": "view",
      "type": "function"
    },
    {
      "constant": true,
      "inputs": [],
      "name": "companyAddress",
      "outputs": [
        {
          "name": "",
          "type": "address"
        }
      ],
      "payable": false,
      "stateMutability": "view",
      "type": "function"
    },
    {
      "constant": true,
      "inputs": [],
      "name": "SALE_START_DATE",
      "outputs": [
        {
          "name": "",
          "type": "uint256"
        }
      ],
      "payable": false,
      "stateMutability": "view",
      "type": "function"
    },
    {
      "constant": true,
      "inputs": [],
      "name": "FROST_BOUNTY_FACTOR",
      "outputs": [
        {
          "name": "",
          "type": "uint256"
        }
      ],
      "payable": false,
      "stateMutability": "view",
      "type": "function"
    },
    {
      "constant": true,
      "inputs": [],
      "name": "assignedTokens",
      "outputs": [
        {
          "name": "",
          "type": "uint256"
        }
      ],
      "payable": false,
      "stateMutability": "view",
      "type": "function"
    },
    {
      "constant": true,
      "inputs": [],
      "name": "companyReserved",
      "outputs": [
        {
          "name": "",
          "type": "uint256"
        }
      ],
      "payable": false,
      "stateMutability": "view",
      "type": "function"
    },
    {
      "constant": true,
      "inputs": [],
      "name": "FROSTED_FOUNDERS_LOCKUP",
      "outputs": [
        {
          "name": "",
          "type": "uint256"
        }
      ],
      "payable": false,
      "stateMutability": "view",
      "type": "function"
    },
    {
      "constant": true,
      "inputs": [],
      "name": "companyReservedDefrosted",
      "outputs": [
        {
          "name": "",
          "type": "bool"
        }
      ],
      "payable": false,
      "stateMutability": "view",
      "type": "function"
    },
    {
      "constant": true,
      "inputs": [],
      "name": "owner",
      "outputs": [
        {
          "name": "",
          "type": "address"
        }
      ],
      "payable": false,
      "stateMutability": "view",
      "type": "function"
    },
    {
      "constant": true,
      "inputs": [],
      "name": "foundersReserved",
      "outputs": [
        {
          "name": "",
          "type": "uint256"
        }
      ],
      "payable": false,
      "stateMutability": "view",
      "type": "function"
    },
    {
      "constant": true,
      "inputs": [],
      "name": "FROSTED_COMPANY_LOCKUP",
      "outputs": [
        {
          "name": "",
          "type": "uint256"
        }
      ],
      "payable": false,
      "stateMutability": "view",
      "type": "function"
    },
    {
      "constant": true,
      "inputs": [],
      "name": "bountyAddress",
      "outputs": [
        {
          "name": "",
          "type": "address"
        }
      ],
      "payable": false,
      "stateMutability": "view",
      "type": "function"
    },
    {
      "constant": true,
      "inputs": [],
      "name": "bountyReserved",
      "outputs": [
        {
          "name": "",
          "type": "uint256"
        }
      ],
      "payable": false,
      "stateMutability": "view",
      "type": "function"
    },
    {
      "constant": true,
      "inputs": [],
      "name": "bountyReservedDefrosted",
      "outputs": [
        {
          "name": "",
          "type": "bool"
        }
      ],
      "payable": false,
      "stateMutability": "view",
      "type": "function"
    },
    {
      "constant": true,
      "inputs": [],
      "name": "foundersAddress",
      "outputs": [
        {
          "name": "",
          "type": "address"
        }
      ],
      "payable": false,
      "stateMutability": "view",
      "type": "function"
    },
    {
      "constant": true,
      "inputs": [],
      "name": "btuTokenAddress",
      "outputs": [
        {
          "name": "",
          "type": "address"
        }
      ],
      "payable": false,
      "stateMutability": "view",
      "type": "function"
    },
    {
      "constant": false,
      "inputs": [
        {
          "name": "newOwner",
          "type": "address"
        }
      ],
      "name": "transferOwnership",
      "outputs": [],
      "payable": false,
      "stateMutability": "nonpayable",
      "type": "function"
    },
    {
      "inputs": [],
      "payable": false,
      "stateMutability": "nonpayable",
      "type": "constructor"
    },
    {
      "anonymous": false,
      "inputs": [
        {
          "indexed": true,
          "name": "previousOwner",
          "type": "address"
        },
        {
          "indexed": true,
          "name": "newOwner",
          "type": "address"
        }
      ],
      "name": "OwnershipTransferred",
      "type": "event"
    },
    {
      "constant": false,
      "inputs": [
        {
          "name": "_batchAddr",
          "type": "address"
        },
        {
          "name": "_batchAmount",
          "type": "uint256"
        }
      ],
      "name": "assignToken",
      "outputs": [],
      "payable": false,
      "stateMutability": "nonpayable",
      "type": "function"
    },
    {
      "constant": false,
      "inputs": [
        {
          "name": "_companyAddress",
          "type": "address"
        },
        {
          "name": "_foundersAddress",
          "type": "address"
        },
        {
          "name": "_bountyAddress",
          "type": "address"
        }
      ],
      "name": "setupFrostedAccounts",
      "outputs": [],
      "payable": false,
      "stateMutability": "nonpayable",
      "type": "function"
    },
    {
      "constant": false,
      "inputs": [],
      "name": "defrostCompanyTokens",
      "outputs": [
        {
          "name": "",
          "type": "bool"
        }
      ],
      "payable": false,
      "stateMutability": "nonpayable",
      "type": "function"
    },
    {
      "constant": false,
      "inputs": [],
      "name": "defrostFoundersTokens",
      "outputs": [
        {
          "name": "",
          "type": "bool"
        }
      ],
      "payable": false,
      "stateMutability": "nonpayable",
      "type": "function"
    },
    {
      "constant": false,
      "inputs": [],
      "name": "defrostBountyTokens",
      "outputs": [
        {
          "name": "",
          "type": "bool"
        }
      ],
      "payable": false,
      "stateMutability": "nonpayable",
      "type": "function"
    },
    {
      "constant": false,
      "inputs": [],
      "name": "destructContract",
      "outputs": [],
      "payable": false,
      "stateMutability": "nonpayable",
      "type": "function"
    }
  ],
  "bytecode": "0x60806040524260015534801561001457600080fd5b50336000806101000a81548173ffffffffffffffffffffffffffffffffffffffff021916908373ffffffffffffffffffffffffffffffffffffffff160217905550336000806101000a81548173ffffffffffffffffffffffffffffffffffffffff021916908373ffffffffffffffffffffffffffffffffffffffff16021790555061009d610150565b604051809103906000f0801580156100b9573d6000803e3d6000fd5b50600a60006101000a81548173ffffffffffffffffffffffffffffffffffffffff021916908373ffffffffffffffffffffffffffffffffffffffff1602179055506000600460006101000a81548160ff0219169083151502179055506000600660006101000a81548160ff0219169083151502179055506000600860006101000a81548160ff021916908315150217905550610160565b604051611a248061160883390190565b6114998061016f6000396000f300608060405260043610610149576000357c0100000000000000000000000000000000000000000000000000000000900463ffffffff1680630935f49a1461014e5780631e3036ef14610179578063447e41cf146101a857806353e1ead9146101d3578063547c1b6a1461022a578063573db744146102555780635a000f3d146102845780635c761134146102af57806361354128146102de5780636864596c146103095780636d7e3df5146103345780636e7612bb1461035f5780638da5cb5b1461038e5780639499e018146103e55780639714aa9d146103fc5780639afb710f14610427578063a401d24d14610452578063c516358f1461049f578063ce5cc72b146104f6578063dd84f32614610525578063e6abebf114610550578063ebfdc6571461057f578063edbbac73146105d6578063f18486d214610659578063f2fde38b146106b0575b600080fd5b34801561015a57600080fd5b506101636106f3565b6040518082815260200191505060405180910390f35b34801561018557600080fd5b5061018e6106f8565b604051808215151515815260200191505060405180910390f35b3480156101b457600080fd5b506101bd61070b565b6040518082815260200191505060405180910390f35b3480156101df57600080fd5b506101e8610710565b604051808273ffffffffffffffffffffffffffffffffffffffff1673ffffffffffffffffffffffffffffffffffffffff16815260200191505060405180910390f35b34801561023657600080fd5b5061023f610736565b6040518082815260200191505060405180910390f35b34801561026157600080fd5b5061026a61073c565b604051808215151515815260200191505060405180910390f35b34801561029057600080fd5b50610299610917565b6040518082815260200191505060405180910390f35b3480156102bb57600080fd5b506102c461091c565b604051808215151515815260200191505060405180910390f35b3480156102ea57600080fd5b506102f3610ae2565b6040518082815260200191505060405180910390f35b34801561031557600080fd5b5061031e610ae8565b6040518082815260200191505060405180910390f35b34801561034057600080fd5b50610349610aee565b6040518082815260200191505060405180910390f35b34801561036b57600080fd5b50610374610af3565b604051808215151515815260200191505060405180910390f35b34801561039a57600080fd5b506103a3610b06565b604051808273ffffffffffffffffffffffffffffffffffffffff1673ffffffffffffffffffffffffffffffffffffffff16815260200191505060405180910390f35b3480156103f157600080fd5b506103fa610b2b565b005b34801561040857600080fd5b50610411610bc0565b6040518082815260200191505060405180910390f35b34801561043357600080fd5b5061043c610bc6565b6040518082815260200191505060405180910390f35b34801561045e57600080fd5b5061049d600480360381019080803573ffffffffffffffffffffffffffffffffffffffff16906020019092919080359060200190929190505050610bcb565b005b3480156104ab57600080fd5b506104b4610d46565b604051808273ffffffffffffffffffffffffffffffffffffffff1673ffffffffffffffffffffffffffffffffffffffff16815260200191505060405180910390f35b34801561050257600080fd5b5061050b610d6c565b604051808215151515815260200191505060405180910390f35b34801561053157600080fd5b5061053a610f47565b6040518082815260200191505060405180910390f35b34801561055c57600080fd5b50610565610f4d565b604051808215151515815260200191505060405180910390f35b34801561058b57600080fd5b50610594610f60565b604051808273ffffffffffffffffffffffffffffffffffffffff1673ffffffffffffffffffffffffffffffffffffffff16815260200191505060405180910390f35b3480156105e257600080fd5b50610657600480360381019080803573ffffffffffffffffffffffffffffffffffffffff169060200190929190803573ffffffffffffffffffffffffffffffffffffffff169060200190929190803573ffffffffffffffffffffffffffffffffffffffff169060200190929190505050610f86565b005b34801561066557600080fd5b5061066e611238565b604051808273ffffffffffffffffffffffffffffffffffffffff1673ffffffffffffffffffffffffffffffffffffffff16815260200191505060405180910390f35b3480156106bc57600080fd5b506106f1600480360381019080803573ffffffffffffffffffffffffffffffffffffffff16906020019092919050505061125e565b005b601481565b600660009054906101000a900460ff1681565b601481565b600260009054906101000a900473ffffffffffffffffffffffffffffffffffffffff1681565b60015481565b60008060009054906101000a900473ffffffffffffffffffffffffffffffffffffffff1673ffffffffffffffffffffffffffffffffffffffff163373ffffffffffffffffffffffffffffffffffffffff1614151561079957600080fd5b60001515600460009054906101000a900460ff1615151415156107bb57600080fd5b6107c36113b3565b421115156107d057600080fd5b600a60009054906101000a900473ffffffffffffffffffffffffffffffffffffffff1673ffffffffffffffffffffffffffffffffffffffff1663a9059cbb600260009054906101000a900473ffffffffffffffffffffffffffffffffffffffff166003546040518363ffffffff167c0100000000000000000000000000000000000000000000000000000000028152600401808373ffffffffffffffffffffffffffffffffffffffff1673ffffffffffffffffffffffffffffffffffffffff16815260200182815260200192505050602060405180830381600087803b1580156108b957600080fd5b505af11580156108cd573d6000803e3d6000fd5b505050506040513d60208110156108e357600080fd5b8101908080519060200190929190505050506001600460006101000a81548160ff0219169083151502179055506001905090565b600a81565b60008060009054906101000a900473ffffffffffffffffffffffffffffffffffffffff1673ffffffffffffffffffffffffffffffffffffffff163373ffffffffffffffffffffffffffffffffffffffff1614151561097957600080fd5b60001515600860009054906101000a900460ff16151514151561099b57600080fd5b600a60009054906101000a900473ffffffffffffffffffffffffffffffffffffffff1673ffffffffffffffffffffffffffffffffffffffff1663a9059cbb600660019054906101000a900473ffffffffffffffffffffffffffffffffffffffff166007546040518363ffffffff167c0100000000000000000000000000000000000000000000000000000000028152600401808373ffffffffffffffffffffffffffffffffffffffff1673ffffffffffffffffffffffffffffffffffffffff16815260200182815260200192505050602060405180830381600087803b158015610a8457600080fd5b505af1158015610a98573d6000803e3d6000fd5b505050506040513d6020811015610aae57600080fd5b8101908080519060200190929190505050506001600860006101000a81548160ff0219169083151502179055506001905090565b60095481565b60035481565b600181565b600460009054906101000a900460ff1681565b6000809054906101000a900473ffffffffffffffffffffffffffffffffffffffff1681565b6000809054906101000a900473ffffffffffffffffffffffffffffffffffffffff1673ffffffffffffffffffffffffffffffffffffffff163373ffffffffffffffffffffffffffffffffffffffff16141515610b8657600080fd5b6000809054906101000a900473ffffffffffffffffffffffffffffffffffffffff1673ffffffffffffffffffffffffffffffffffffffff16ff5b60055481565b600281565b6000809054906101000a900473ffffffffffffffffffffffffffffffffffffffff1673ffffffffffffffffffffffffffffffffffffffff163373ffffffffffffffffffffffffffffffffffffffff16141515610c2657600080fd5b610c3b816009546113e690919063ffffffff16565b600981905550600a60009054906101000a900473ffffffffffffffffffffffffffffffffffffffff1673ffffffffffffffffffffffffffffffffffffffff1663a9059cbb83836040518363ffffffff167c0100000000000000000000000000000000000000000000000000000000028152600401808373ffffffffffffffffffffffffffffffffffffffff1673ffffffffffffffffffffffffffffffffffffffff16815260200182815260200192505050602060405180830381600087803b158015610d0657600080fd5b505af1158015610d1a573d6000803e3d6000fd5b505050506040513d6020811015610d3057600080fd5b8101908080519060200190929190505050505050565b600660019054906101000a900473ffffffffffffffffffffffffffffffffffffffff1681565b60008060009054906101000a900473ffffffffffffffffffffffffffffffffffffffff1673ffffffffffffffffffffffffffffffffffffffff163373ffffffffffffffffffffffffffffffffffffffff16141515610dc957600080fd5b60001515600660009054906101000a900460ff161515141515610deb57600080fd5b610df3611402565b42111515610e0057600080fd5b600a60009054906101000a900473ffffffffffffffffffffffffffffffffffffffff1673ffffffffffffffffffffffffffffffffffffffff1663a9059cbb600460019054906101000a900473ffffffffffffffffffffffffffffffffffffffff166005546040518363ffffffff167c0100000000000000000000000000000000000000000000000000000000028152600401808373ffffffffffffffffffffffffffffffffffffffff1673ffffffffffffffffffffffffffffffffffffffff16815260200182815260200192505050602060405180830381600087803b158015610ee957600080fd5b505af1158015610efd573d6000803e3d6000fd5b505050506040513d6020811015610f1357600080fd5b8101908080519060200190929190505050506001600660006101000a81548160ff0219169083151502179055506001905090565b60075481565b600860009054906101000a900460ff1681565b600460019054906101000a900473ffffffffffffffffffffffffffffffffffffffff1681565b60008060009054906101000a900473ffffffffffffffffffffffffffffffffffffffff1673ffffffffffffffffffffffffffffffffffffffff163373ffffffffffffffffffffffffffffffffffffffff16141515610fe357600080fd5b83600260006101000a81548173ffffffffffffffffffffffffffffffffffffffff021916908373ffffffffffffffffffffffffffffffffffffffff16021790555082600460016101000a81548173ffffffffffffffffffffffffffffffffffffffff021916908373ffffffffffffffffffffffffffffffffffffffff16021790555081600660016101000a81548173ffffffffffffffffffffffffffffffffffffffff021916908373ffffffffffffffffffffffffffffffffffffffff160217905550600a60009054906101000a900473ffffffffffffffffffffffffffffffffffffffff1673ffffffffffffffffffffffffffffffffffffffff166318160ddd6040518163ffffffff167c0100000000000000000000000000000000000000000000000000000000028152600401602060405180830381600087803b15801561112c57600080fd5b505af1158015611140573d6000803e3d6000fd5b505050506040513d602081101561115657600080fd5b81019080805190602001909291905050509050606461117f60148361143590919063ffffffff16565b81151561118857fe5b0460038190555060646111a560148361143590919063ffffffff16565b8115156111ae57fe5b0460058190555060646111cb600a8361143590919063ffffffff16565b8115156111d457fe5b046007819055506111f26003546009546113e690919063ffffffff16565b60098190555061120f6005546009546113e690919063ffffffff16565b60098190555061122c6007546009546113e690919063ffffffff16565b60098190555050505050565b600a60009054906101000a900473ffffffffffffffffffffffffffffffffffffffff1681565b6000809054906101000a900473ffffffffffffffffffffffffffffffffffffffff1673ffffffffffffffffffffffffffffffffffffffff163373ffffffffffffffffffffffffffffffffffffffff161415156112b957600080fd5b600073ffffffffffffffffffffffffffffffffffffffff168173ffffffffffffffffffffffffffffffffffffffff16141515156112f557600080fd5b8073ffffffffffffffffffffffffffffffffffffffff166000809054906101000a900473ffffffffffffffffffffffffffffffffffffffff1673ffffffffffffffffffffffffffffffffffffffff167f8be0079c531659141344cd1fd0a4f28419497f9722a3daafe3b4186f6b6457e060405160405180910390a3806000806101000a81548173ffffffffffffffffffffffffffffffffffffffff021916908373ffffffffffffffffffffffffffffffffffffffff16021790555050565b60006113e16113d06301e13380600261143590919063ffffffff16565b6001546113e690919063ffffffff16565b905090565b600081830190508281101515156113f957fe5b80905092915050565b600061143061141f6301e13380600161143590919063ffffffff16565b6001546113e690919063ffffffff16565b905090565b6000808314156114485760009050611467565b818302905081838281151561145957fe5b0414151561146357fe5b8090505b929150505600a165627a7a72305820b0b72ed71a6886da3b8d75e648dc7a089f6caa4977246e30a97b71d014be63bf002960806040526000600360146101000a81548160ff02191690831515021790555034801561002b57600080fd5b506a52b7d2dcc80cd2e400000033600360006101000a81548173ffffffffffffffffffffffffffffffffffffffff021916908373ffffffffffffffffffffffffffffffffffffffff16021790555060008111151561008857600080fd5b80600481905550506a52b7d2dcc80cd2e40000006001819055506a52b7d2dcc80cd2e40000006000803373ffffffffffffffffffffffffffffffffffffffff1673ffffffffffffffffffffffffffffffffffffffff16815260200190815260200160002081905550611925806100ff6000396000f3006080604052600436106100fc576000357c0100000000000000000000000000000000000000000000000000000000900463ffffffff16806305d2035b1461010157806306fdde0314610130578063095ea7b3146101c057806318160ddd1461022557806323b872dd146102505780632ff2e9dc146102d5578063313ce56714610300578063355274ea1461033157806340c10f191461035c57806366188463146103c157806370a08231146104265780637d64bcb41461047d5780638da5cb5b146104ac57806395d89b4114610503578063a9059cbb14610593578063d73dd623146105f8578063dd62ed3e1461065d578063f2fde38b146106d4575b600080fd5b34801561010d57600080fd5b50610116610717565b604051808215151515815260200191505060405180910390f35b34801561013c57600080fd5b5061014561072a565b6040518080602001828103825283818151815260200191508051906020019080838360005b8381101561018557808201518184015260208101905061016a565b50505050905090810190601f1680156101b25780820380516001836020036101000a031916815260200191505b509250505060405180910390f35b3480156101cc57600080fd5b5061020b600480360381019080803573ffffffffffffffffffffffffffffffffffffffff16906020019092919080359060200190929190505050610763565b604051808215151515815260200191505060405180910390f35b34801561023157600080fd5b5061023a610855565b6040518082815260200191505060405180910390f35b34801561025c57600080fd5b506102bb600480360381019080803573ffffffffffffffffffffffffffffffffffffffff169060200190929190803573ffffffffffffffffffffffffffffffffffffffff1690602001909291908035906020019092919050505061085f565b604051808215151515815260200191505060405180910390f35b3480156102e157600080fd5b506102ea610c19565b6040518082815260200191505060405180910390f35b34801561030c57600080fd5b50610315610c28565b604051808260ff1660ff16815260200191505060405180910390f35b34801561033d57600080fd5b50610346610c2d565b6040518082815260200191505060405180910390f35b34801561036857600080fd5b506103a7600480360381019080803573ffffffffffffffffffffffffffffffffffffffff16906020019092919080359060200190929190505050610c33565b604051808215151515815260200191505060405180910390f35b3480156103cd57600080fd5b5061040c600480360381019080803573ffffffffffffffffffffffffffffffffffffffff16906020019092919080359060200190929190505050610ce4565b604051808215151515815260200191505060405180910390f35b34801561043257600080fd5b50610467600480360381019080803573ffffffffffffffffffffffffffffffffffffffff169060200190929190505050610f75565b6040518082815260200191505060405180910390f35b34801561048957600080fd5b50610492610fbd565b604051808215151515815260200191505060405180910390f35b3480156104b857600080fd5b506104c1611085565b604051808273ffffffffffffffffffffffffffffffffffffffff1673ffffffffffffffffffffffffffffffffffffffff16815260200191505060405180910390f35b34801561050f57600080fd5b506105186110ab565b6040518080602001828103825283818151815260200191508051906020019080838360005b8381101561055857808201518184015260208101905061053d565b50505050905090810190601f1680156105855780820380516001836020036101000a031916815260200191505b509250505060405180910390f35b34801561059f57600080fd5b506105de600480360381019080803573ffffffffffffffffffffffffffffffffffffffff169060200190929190803590602001909291905050506110e4565b604051808215151515815260200191505060405180910390f35b34801561060457600080fd5b50610643600480360381019080803573ffffffffffffffffffffffffffffffffffffffff16906020019092919080359060200190929190505050611303565b604051808215151515815260200191505060405180910390f35b34801561066957600080fd5b506106be600480360381019080803573ffffffffffffffffffffffffffffffffffffffff169060200190929190803573ffffffffffffffffffffffffffffffffffffffff1690602001909291905050506114ff565b6040518082815260200191505060405180910390f35b3480156106e057600080fd5b50610715600480360381019080803573ffffffffffffffffffffffffffffffffffffffff169060200190929190505050611586565b005b600360149054906101000a900460ff1681565b6040805190810160405280600c81526020017f4254552050726f746f636f6c000000000000000000000000000000000000000081525081565b600081600260003373ffffffffffffffffffffffffffffffffffffffff1673ffffffffffffffffffffffffffffffffffffffff16815260200190815260200160002060008573ffffffffffffffffffffffffffffffffffffffff1673ffffffffffffffffffffffffffffffffffffffff168152602001908152602001600020819055508273ffffffffffffffffffffffffffffffffffffffff163373ffffffffffffffffffffffffffffffffffffffff167f8c5be1e5ebec7d5bd14f71427d1e84f3dd0314c0f7b2291e5b200ac8c7c3b925846040518082815260200191505060405180910390a36001905092915050565b6000600154905090565b60008073ffffffffffffffffffffffffffffffffffffffff168373ffffffffffffffffffffffffffffffffffffffff161415151561089c57600080fd5b6000808573ffffffffffffffffffffffffffffffffffffffff1673ffffffffffffffffffffffffffffffffffffffff1681526020019081526020016000205482111515156108e957600080fd5b600260008573ffffffffffffffffffffffffffffffffffffffff1673ffffffffffffffffffffffffffffffffffffffff16815260200190815260200160002060003373ffffffffffffffffffffffffffffffffffffffff1673ffffffffffffffffffffffffffffffffffffffff16815260200190815260200160002054821115151561097457600080fd5b6109c5826000808773ffffffffffffffffffffffffffffffffffffffff1673ffffffffffffffffffffffffffffffffffffffff168152602001908152602001600020546116de90919063ffffffff16565b6000808673ffffffffffffffffffffffffffffffffffffffff1673ffffffffffffffffffffffffffffffffffffffff16815260200190815260200160002081905550610a58826000808673ffffffffffffffffffffffffffffffffffffffff1673ffffffffffffffffffffffffffffffffffffffff168152602001908152602001600020546116f790919063ffffffff16565b6000808573ffffffffffffffffffffffffffffffffffffffff1673ffffffffffffffffffffffffffffffffffffffff16815260200190815260200160002081905550610b2982600260008773ffffffffffffffffffffffffffffffffffffffff1673ffffffffffffffffffffffffffffffffffffffff16815260200190815260200160002060003373ffffffffffffffffffffffffffffffffffffffff1673ffffffffffffffffffffffffffffffffffffffff168152602001908152602001600020546116de90919063ffffffff16565b600260008673ffffffffffffffffffffffffffffffffffffffff1673ffffffffffffffffffffffffffffffffffffffff16815260200190815260200160002060003373ffffffffffffffffffffffffffffffffffffffff1673ffffffffffffffffffffffffffffffffffffffff168152602001908152602001600020819055508273ffffffffffffffffffffffffffffffffffffffff168473ffffffffffffffffffffffffffffffffffffffff167fddf252ad1be2c89b69c2b068fc378daa952ba7f163c4a11628f55a4df523b3ef846040518082815260200191505060405180910390a3600190509392505050565b6a52b7d2dcc80cd2e400000081565b601281565b60045481565b6000600360009054906101000a900473ffffffffffffffffffffffffffffffffffffffff1673ffffffffffffffffffffffffffffffffffffffff163373ffffffffffffffffffffffffffffffffffffffff16141515610c9157600080fd5b600360149054906101000a900460ff16151515610cad57600080fd5b600454610cc5836001546116f790919063ffffffff16565b11151515610cd257600080fd5b610cdc8383611713565b905092915050565b600080600260003373ffffffffffffffffffffffffffffffffffffffff1673ffffffffffffffffffffffffffffffffffffffff16815260200190815260200160002060008573ffffffffffffffffffffffffffffffffffffffff1673ffffffffffffffffffffffffffffffffffffffff16815260200190815260200160002054905080831115610df5576000600260003373ffffffffffffffffffffffffffffffffffffffff1673ffffffffffffffffffffffffffffffffffffffff16815260200190815260200160002060008673ffffffffffffffffffffffffffffffffffffffff1673ffffffffffffffffffffffffffffffffffffffff16815260200190815260200160002081905550610e89565b610e0883826116de90919063ffffffff16565b600260003373ffffffffffffffffffffffffffffffffffffffff1673ffffffffffffffffffffffffffffffffffffffff16815260200190815260200160002060008673ffffffffffffffffffffffffffffffffffffffff1673ffffffffffffffffffffffffffffffffffffffff168152602001908152602001600020819055505b8373ffffffffffffffffffffffffffffffffffffffff163373ffffffffffffffffffffffffffffffffffffffff167f8c5be1e5ebec7d5bd14f71427d1e84f3dd0314c0f7b2291e5b200ac8c7c3b925600260003373ffffffffffffffffffffffffffffffffffffffff1673ffffffffffffffffffffffffffffffffffffffff16815260200190815260200160002060008873ffffffffffffffffffffffffffffffffffffffff1673ffffffffffffffffffffffffffffffffffffffff168152602001908152602001600020546040518082815260200191505060405180910390a3600191505092915050565b60008060008373ffffffffffffffffffffffffffffffffffffffff1673ffffffffffffffffffffffffffffffffffffffff168152602001908152602001600020549050919050565b6000600360009054906101000a900473ffffffffffffffffffffffffffffffffffffffff1673ffffffffffffffffffffffffffffffffffffffff163373ffffffffffffffffffffffffffffffffffffffff1614151561101b57600080fd5b600360149054906101000a900460ff1615151561103757600080fd5b6001600360146101000a81548160ff0219169083151502179055507fae5184fba832cb2b1f702aca6117b8d265eaf03ad33eb133f19dde0f5920fa0860405160405180910390a16001905090565b600360009054906101000a900473ffffffffffffffffffffffffffffffffffffffff1681565b6040805190810160405280600381526020017f425455000000000000000000000000000000000000000000000000000000000081525081565b60008073ffffffffffffffffffffffffffffffffffffffff168373ffffffffffffffffffffffffffffffffffffffff161415151561112157600080fd5b6000803373ffffffffffffffffffffffffffffffffffffffff1673ffffffffffffffffffffffffffffffffffffffff16815260200190815260200160002054821115151561116e57600080fd5b6111bf826000803373ffffffffffffffffffffffffffffffffffffffff1673ffffffffffffffffffffffffffffffffffffffff168152602001908152602001600020546116de90919063ffffffff16565b6000803373ffffffffffffffffffffffffffffffffffffffff1673ffffffffffffffffffffffffffffffffffffffff16815260200190815260200160002081905550611252826000808673ffffffffffffffffffffffffffffffffffffffff1673ffffffffffffffffffffffffffffffffffffffff168152602001908152602001600020546116f790919063ffffffff16565b6000808573ffffffffffffffffffffffffffffffffffffffff1673ffffffffffffffffffffffffffffffffffffffff168152602001908152602001600020819055508273ffffffffffffffffffffffffffffffffffffffff163373ffffffffffffffffffffffffffffffffffffffff167fddf252ad1be2c89b69c2b068fc378daa952ba7f163c4a11628f55a4df523b3ef846040518082815260200191505060405180910390a36001905092915050565b600061139482600260003373ffffffffffffffffffffffffffffffffffffffff1673ffffffffffffffffffffffffffffffffffffffff16815260200190815260200160002060008673ffffffffffffffffffffffffffffffffffffffff1673ffffffffffffffffffffffffffffffffffffffff168152602001908152602001600020546116f790919063ffffffff16565b600260003373ffffffffffffffffffffffffffffffffffffffff1673ffffffffffffffffffffffffffffffffffffffff16815260200190815260200160002060008573ffffffffffffffffffffffffffffffffffffffff1673ffffffffffffffffffffffffffffffffffffffff168152602001908152602001600020819055508273ffffffffffffffffffffffffffffffffffffffff163373ffffffffffffffffffffffffffffffffffffffff167f8c5be1e5ebec7d5bd14f71427d1e84f3dd0314c0f7b2291e5b200ac8c7c3b925600260003373ffffffffffffffffffffffffffffffffffffffff1673ffffffffffffffffffffffffffffffffffffffff16815260200190815260200160002060008773ffffffffffffffffffffffffffffffffffffffff1673ffffffffffffffffffffffffffffffffffffffff168152602001908152602001600020546040518082815260200191505060405180910390a36001905092915050565b6000600260008473ffffffffffffffffffffffffffffffffffffffff1673ffffffffffffffffffffffffffffffffffffffff16815260200190815260200160002060008373ffffffffffffffffffffffffffffffffffffffff1673ffffffffffffffffffffffffffffffffffffffff16815260200190815260200160002054905092915050565b600360009054906101000a900473ffffffffffffffffffffffffffffffffffffffff1673ffffffffffffffffffffffffffffffffffffffff163373ffffffffffffffffffffffffffffffffffffffff161415156115e257600080fd5b600073ffffffffffffffffffffffffffffffffffffffff168173ffffffffffffffffffffffffffffffffffffffff161415151561161e57600080fd5b8073ffffffffffffffffffffffffffffffffffffffff16600360009054906101000a900473ffffffffffffffffffffffffffffffffffffffff1673ffffffffffffffffffffffffffffffffffffffff167f8be0079c531659141344cd1fd0a4f28419497f9722a3daafe3b4186f6b6457e060405160405180910390a380600360006101000a81548173ffffffffffffffffffffffffffffffffffffffff021916908373ffffffffffffffffffffffffffffffffffffffff16021790555050565b60008282111515156116ec57fe5b818303905092915050565b6000818301905082811015151561170a57fe5b80905092915050565b6000600360009054906101000a900473ffffffffffffffffffffffffffffffffffffffff1673ffffffffffffffffffffffffffffffffffffffff163373ffffffffffffffffffffffffffffffffffffffff1614151561177157600080fd5b600360149054906101000a900460ff1615151561178d57600080fd5b6117a2826001546116f790919063ffffffff16565b6001819055506117f9826000808673ffffffffffffffffffffffffffffffffffffffff1673ffffffffffffffffffffffffffffffffffffffff168152602001908152602001600020546116f790919063ffffffff16565b6000808573ffffffffffffffffffffffffffffffffffffffff1673ffffffffffffffffffffffffffffffffffffffff168152602001908152602001600020819055508273ffffffffffffffffffffffffffffffffffffffff167f0f6798a560793a54c3bcfe86a93cde1e73087d944c0ea20544137d4121396885836040518082815260200191505060405180910390a28273ffffffffffffffffffffffffffffffffffffffff16600073ffffffffffffffffffffffffffffffffffffffff167fddf252ad1be2c89b69c2b068fc378daa952ba7f163c4a11628f55a4df523b3ef846040518082815260200191505060405180910390a360019050929150505600a165627a7a7230582092b03bd80a1ceb03e5ed48e612a233234f9c84bb1feb30887640f79214d0fba70029",
  "source": "pragma solidity ^0.4.23;\n\nimport \"./BTU.sol\";\n\n/* This contract is usable by the BTU's owner only unless ownership is transferred.\n * In that case the owner of the BTU has to approve every transfer.\n * The BTUTokenSale owns the BTU as it creates it when constructed.\n * Composition is used to call the BTU standard ERC20 functions from this contract.\n */\ncontract BTUTokenSale is Ownable {\n\n    using SafeMath for uint256;\n\n    uint256 public SALE_START_DATE = now;\n\n    uint public constant FROST_COMPANY_FACTOR = 20;  // 20% reserved for the company\n    uint public constant FROST_FOUNDERS_FACTOR = 20; // 20% reserved for the founders\n    uint public constant FROST_BOUNTY_FACTOR = 10;   // 10% reserved for bounty\n\n    uint public constant FROSTED_COMPANY_LOCKUP = 2;    // 2 years lockup\n    uint public constant FROSTED_FOUNDERS_LOCKUP = 1;   // 1 year lockup\n\n    /**\n     * Company reserved specific fields\n     */\n    // Address of the company reserve\n    address public companyAddress;\n    // Amount reserved\n    uint256 public companyReserved;\n    // Already defrosted\n    bool public companyReservedDefrosted;\n\n    /**\n     * Founders reserved specific fields\n     */\n    // Address of the founders reserve\n    address public foundersAddress;\n    // Amount reserved\n    uint256 public foundersReserved;\n    // Already defrosted\n    bool public foundersReservedDefrosted;\n\n    /**\n     * Bounty reserved specific fields\n     */\n    // Address of the bounty reserve\n    address public bountyAddress;\n    // Amount reserved\n    uint256 public bountyReserved;\n    // Already defrosted\n    bool public bountyReservedDefrosted;\n\n    // Number of assigned tokens to date\n    uint256 public assignedTokens;\n\n    /**\n     * BTUToken\n     */\n    // Address of BTUToken smart contract\n    address public btuTokenAddress;\n\n    // Construtor\n    constructor() public {\n        owner = msg.sender;\n        btuTokenAddress = new BTU();\n        companyReservedDefrosted = false;\n        foundersReservedDefrosted = false;\n        bountyReservedDefrosted = false;\n    }\n\n    /* Assignment of tokens has to be done by the owner of the BTUToken\n     * It is done in batches of addreses with corresponding amounts\n     * For the transfer to work the owner has to approve the transfer for each address first\n     * When assigning tokens one should remember that 1BTU = 10**18 as decimals must be accounted for.\n     * Sorting of the 2 arrays given as arguments must be the same as well as their length\n     */\n    function assignToken(address _batchAddr, uint _batchAmount) public onlyOwner {\n        assignedTokens = assignedTokens.add(_batchAmount);\n        BTU(btuTokenAddress).transfer(_batchAddr, _batchAmount); // Transfer BTU amount to the corresponding address\n    }\n\n    /**\n     * Sets the frosted account for the company, the founders and the bounty\n     * This function must be called before any another to ensure assignedTokens has the right value.\n     */\n    function setupFrostedAccounts(address _companyAddress,\n                                  address _foundersAddress,\n                                  address _bountyAddress) public onlyOwner {\n        companyAddress = _companyAddress;\n        foundersAddress = _foundersAddress;\n        bountyAddress = _bountyAddress;\n        // Reserve the frosted tokens\n        uint256 initialSupply = BTU(btuTokenAddress).totalSupply();\n        companyReserved = initialSupply.mul(FROST_COMPANY_FACTOR) / 100;\n        foundersReserved = initialSupply.mul(FROST_FOUNDERS_FACTOR) / 100;\n        bountyReserved = initialSupply.mul(FROST_BOUNTY_FACTOR) / 100;\n        // Keep track of the number of assigned tokens\n        assignedTokens = assignedTokens.add(companyReserved);\n        assignedTokens = assignedTokens.add(foundersReserved);\n        assignedTokens = assignedTokens.add(bountyReserved);\n    }\n\n    // Frost period for the frosted company tokens\n    function defrostCompanyDate() internal view returns(uint256){\n        return SALE_START_DATE.add(FROSTED_COMPANY_LOCKUP.mul(1 years));\n    }\n\n    // Defrost company reserved tokens\n    function defrostCompanyTokens() public onlyOwner returns(bool) {\n        require(companyReservedDefrosted == false);\n        require(now > defrostCompanyDate());\n        BTU(btuTokenAddress).transfer(companyAddress, companyReserved);\n        companyReservedDefrosted = true;\n        return true;\n    }\n\n    // Frost period for the frosted founders tokens\n    function defrostFoundersDate() internal view returns(uint256) {\n        return SALE_START_DATE.add(FROSTED_FOUNDERS_LOCKUP.mul(1 years));\n    }\n\n    // Defrost founders reserved tokens (only usable after the frost period is over)\n    function defrostFoundersTokens() public onlyOwner returns(bool) {\n        require(foundersReservedDefrosted == false);\n        require(now > defrostFoundersDate());\n        BTU(btuTokenAddress).transfer(foundersAddress, foundersReserved);\n        foundersReservedDefrosted = true;\n        return true;\n    }\n\n    // No frost period for the bounty, the owner can defrost at will\n    function defrostBountyTokens() public onlyOwner returns(bool) {\n        require(bountyReservedDefrosted == false);\n        BTU(btuTokenAddress).transfer(bountyAddress, bountyReserved);\n        bountyReservedDefrosted = true;\n        return true;\n    }\n\n    // Selfdestruct this contract\n    function destructContract() public onlyOwner {\n        selfdestruct(owner);\n    }\n}\n",
  "sourcePath": "/Users/gad/btu/BTUToken/contracts/BTUTokenSale.sol",
  "compiler": {
    "name": "solc",
    "version": "0.4.24+commit.e67f0147.Emscripten.clang"
  },
  "schemaVersion": "2.0.1",
  "updatedAt": "2018-10-09T15:05:00.887Z"
}