{
  "contractName": "RES",
  "abi": [
    {
      "inputs": [
        {
          "name": "btuAddress",
          "type": "address"
        }
      ],
      "payable": false,
      "stateMutability": "nonpayable",
      "type": "constructor"
    },
    {
      "anonymous": false,
      "inputs": [
        {
          "indexed": false,
          "name": "id",
          "type": "uint256"
        }
      ],
      "name": "NewAvailabilityEvent",
      "type": "event"
    },
    {
      "constant": false,
      "inputs": [
        {
          "name": "btuAddress",
          "type": "address"
        }
      ],
      "name": "setBTUToken",
      "outputs": [],
      "payable": false,
      "stateMutability": "nonpayable",
      "type": "function"
    },
    {
      "constant": false,
      "inputs": [
        {
          "name": "aType",
          "type": "uint256"
        },
        {
          "name": "minDeposit",
          "type": "uint256"
        },
        {
          "name": "commission",
          "type": "uint256"
        },
        {
          "name": "freeCancelDateTs",
          "type": "uint256"
        },
        {
          "name": "startDateTs",
          "type": "uint256"
        },
        {
          "name": "endDateTs",
          "type": "uint256"
        },
        {
          "name": "metaDataLink",
          "type": "string"
        }
      ],
      "name": "publishAvailability",
      "outputs": [
        {
          "name": "_resourceID",
          "type": "uint256"
        }
      ],
      "payable": false,
      "stateMutability": "nonpayable",
      "type": "function"
    },
    {
      "constant": true,
      "inputs": [],
      "name": "getAvailabilityNumber",
      "outputs": [
        {
          "name": "number",
          "type": "uint256"
        }
      ],
      "payable": false,
      "stateMutability": "view",
      "type": "function"
    },
    {
      "constant": true,
      "inputs": [
        {
          "name": "_resourceID",
          "type": "uint256"
        }
      ],
      "name": "getAvailability",
      "outputs": [
        {
          "name": "provider",
          "type": "address"
        },
        {
          "name": "aType",
          "type": "uint256"
        },
        {
          "name": "minDeposit",
          "type": "uint256"
        },
        {
          "name": "commission",
          "type": "uint256"
        },
        {
          "name": "freeCancelDateTs",
          "type": "uint256"
        },
        {
          "name": "startDateTs",
          "type": "uint256"
        },
        {
          "name": "endDateTs",
          "type": "uint256"
        },
        {
          "name": "availabilityStatus",
          "type": "uint256"
        },
        {
          "name": "metaDataLink",
          "type": "string"
        }
      ],
      "payable": false,
      "stateMutability": "view",
      "type": "function"
    },
    {
      "constant": false,
      "inputs": [
        {
          "name": "_resourceID",
          "type": "uint256"
        }
      ],
      "name": "requestReservation",
      "outputs": [
        {
          "name": "status",
          "type": "bool"
        }
      ],
      "payable": true,
      "stateMutability": "payable",
      "type": "function"
    },
    {
      "constant": false,
      "inputs": [
        {
          "name": "_resourceID",
          "type": "uint256"
        }
      ],
      "name": "acceptReservation",
      "outputs": [],
      "payable": false,
      "stateMutability": "nonpayable",
      "type": "function"
    },
    {
      "constant": false,
      "inputs": [
        {
          "name": "_resourceID",
          "type": "uint256"
        }
      ],
      "name": "cancelReservation",
      "outputs": [],
      "payable": false,
      "stateMutability": "nonpayable",
      "type": "function"
    },
    {
      "constant": false,
      "inputs": [
        {
          "name": "_resourceID",
          "type": "uint256"
        }
      ],
      "name": "completeTransaction",
      "outputs": [],
      "payable": false,
      "stateMutability": "nonpayable",
      "type": "function"
    },
    {
      "constant": false,
      "inputs": [
        {
          "name": "_resourceID",
          "type": "uint256"
        }
      ],
      "name": "rejectTransaction",
      "outputs": [],
      "payable": false,
      "stateMutability": "nonpayable",
      "type": "function"
    },
    {
      "constant": true,
      "inputs": [
        {
          "name": "_resourceID",
          "type": "uint256"
        }
      ],
      "name": "getReservationStatus",
      "outputs": [
        {
          "name": "status",
          "type": "uint256"
        }
      ],
      "payable": false,
      "stateMutability": "view",
      "type": "function"
    }
  ],
  "bytecode": "0x6060604052341561000f57600080fd5b604051602080611bbd8339810160405280805190602001909190505080600260006101000a81548173ffffffffffffffffffffffffffffffffffffffff021916908373ffffffffffffffffffffffffffffffffffffffff16021790555050611b418061007c6000396000f3006060604052600436106100a4576000357c0100000000000000000000000000000000000000000000000000000000900463ffffffff16806305bf37aa146100a957806332db4acf146100cc5780633eb3e25e146100f55780637b533fb31461012c578063ada858f6146101d3578063ae5e6cf41461020c578063b48199131461022f578063cd6a8eca14610252578063eab835da14610352578063f5e83e1714610382575b600080fd5b34156100b457600080fd5b6100ca60048080359060200190919050506103a5565b005b34156100d757600080fd5b6100df6106b8565b6040518082815260200191505060405180910390f35b341561010057600080fd5b61011660048080359060200190919050506106c1565b6040518082815260200191505060405180910390f35b341561013757600080fd5b6101bd600480803590602001909190803590602001909190803590602001909190803590602001909190803590602001909190803590602001909190803590602001908201803590602001908080601f016020809104026020016040519081016040528093929190818152602001838380828437820191505050505050919050506106f9565b6040518082815260200191505060405180910390f35b34156101de57600080fd5b61020a600480803573ffffffffffffffffffffffffffffffffffffffff16906020019091905050610821565b005b341561021757600080fd5b61022d60048080359060200190919050506108fb565b005b341561023a57600080fd5b610250600480803590602001909190505061112e565b005b341561025d57600080fd5b61027360048080359060200190919050506111d9565b604051808a73ffffffffffffffffffffffffffffffffffffffff1673ffffffffffffffffffffffffffffffffffffffff16815260200189815260200188815260200187815260200186815260200185815260200184815260200183815260200180602001828103825283818151815260200191508051906020019080838360005b8381101561030f5780820151818401526020810190506102f4565b50505050905090810190601f16801561033c5780820380516001836020036101000a031916815260200191505b509a505050505050505050505060405180910390f35b61036860048080359060200190919050506113ab565b604051808215151515815260200191505060405180910390f35b341561038d57600080fd5b6103a36004808035906020019091905050611679565b005b6001600082815260200190815260200160002060000160009054906101000a900473ffffffffffffffffffffffffffffffffffffffff1673ffffffffffffffffffffffffffffffffffffffff163373ffffffffffffffffffffffffffffffffffffffff1614151561041557600080fd5b600260009054906101000a900473ffffffffffffffffffffffffffffffffffffffff1673ffffffffffffffffffffffffffffffffffffffff1663095ea7b33060016000858152602001908152602001600020600301546000604051602001526040518363ffffffff167c0100000000000000000000000000000000000000000000000000000000028152600401808373ffffffffffffffffffffffffffffffffffffffff1673ffffffffffffffffffffffffffffffffffffffff16815260200182815260200192505050602060405180830381600087803b15156104f857600080fd5b6102c65a03f1151561050957600080fd5b5050506040518051905050600260009054906101000a900473ffffffffffffffffffffffffffffffffffffffff1673ffffffffffffffffffffffffffffffffffffffff166323b872dd306001600085815260200190815260200160002060010160009054906101000a900473ffffffffffffffffffffffffffffffffffffffff1660016000868152602001908152602001600020600301546000604051602001526040518463ffffffff167c0100000000000000000000000000000000000000000000000000000000028152600401808473ffffffffffffffffffffffffffffffffffffffff1673ffffffffffffffffffffffffffffffffffffffff1681526020018373ffffffffffffffffffffffffffffffffffffffff1673ffffffffffffffffffffffffffffffffffffffff1681526020018281526020019350505050602060405180830381600087803b151561066157600080fd5b6102c65a03f1151561067257600080fd5b505050604051805190505060006001600083815260200190815260200160002060080160006101000a81548160ff021916908360028111156106b057fe5b021790555050565b60008054905090565b60006001600083815260200190815260200160002060080160009054906101000a900460ff1660028111156106f257fe5b9050919050565b60008060016000805481526020019081526020016000209050338160000160006101000a81548173ffffffffffffffffffffffffffffffffffffffff021916908373ffffffffffffffffffffffffffffffffffffffff16021790555088816002018190555087816003018190555086816004018190555085816005018190555084816006018190555083816007018190555060008160080160006101000a81548160ff021916908360028111156107ac57fe5b0217905550828160090190805190602001906107c9929190611a14565b5060005491507ff0c95675f4661b504b7dc5f91f6f2d413ce23b3e7f77735b5fd3e49f1caec3d6600080815480929190600101919050556040518082815260200191505060405180910390a150979650505050505050565b600073ffffffffffffffffffffffffffffffffffffffff168173ffffffffffffffffffffffffffffffffffffffff16141580156108ac5750600073ffffffffffffffffffffffffffffffffffffffff16600260009054906101000a900473ffffffffffffffffffffffffffffffffffffffff1673ffffffffffffffffffffffffffffffffffffffff16145b15156108b757600080fd5b80600260006101000a81548173ffffffffffffffffffffffffffffffffffffffff021916908373ffffffffffffffffffffffffffffffffffffffff16021790555050565b6001600082815260200190815260200160002060000160009054906101000a900473ffffffffffffffffffffffffffffffffffffffff1673ffffffffffffffffffffffffffffffffffffffff163373ffffffffffffffffffffffffffffffffffffffff161415610c9257600260009054906101000a900473ffffffffffffffffffffffffffffffffffffffff1673ffffffffffffffffffffffffffffffffffffffff1663095ea7b33060016000858152602001908152602001600020600301546000604051602001526040518363ffffffff167c0100000000000000000000000000000000000000000000000000000000028152600401808373ffffffffffffffffffffffffffffffffffffffff1673ffffffffffffffffffffffffffffffffffffffff16815260200182815260200192505050602060405180830381600087803b1515610a4857600080fd5b6102c65a03f11515610a5957600080fd5b5050506040518051905050600260009054906101000a900473ffffffffffffffffffffffffffffffffffffffff1673ffffffffffffffffffffffffffffffffffffffff166323b872dd306001600085815260200190815260200160002060010160009054906101000a900473ffffffffffffffffffffffffffffffffffffffff1660016000868152602001908152602001600020600301546000604051602001526040518463ffffffff167c0100000000000000000000000000000000000000000000000000000000028152600401808473ffffffffffffffffffffffffffffffffffffffff1673ffffffffffffffffffffffffffffffffffffffff1681526020018373ffffffffffffffffffffffffffffffffffffffff1673ffffffffffffffffffffffffffffffffffffffff1681526020018281526020019350505050602060405180830381600087803b1515610bb157600080fd5b6102c65a03f11515610bc257600080fd5b505050604051805190505060016000828152602001908152602001600020600080820160006101000a81549073ffffffffffffffffffffffffffffffffffffffff02191690556001820160006101000a81549073ffffffffffffffffffffffffffffffffffffffff02191690556002820160009055600382016000905560048201600090556005820160009055600682016000905560078201600090556008820160006101000a81549060ff0219169055600982016000610c839190611a94565b600a820160009055505061112b565b6001600082815260200190815260200160002060010160009054906101000a900473ffffffffffffffffffffffffffffffffffffffff1673ffffffffffffffffffffffffffffffffffffffff163373ffffffffffffffffffffffffffffffffffffffff16141561112a57600260009054906101000a900473ffffffffffffffffffffffffffffffffffffffff1673ffffffffffffffffffffffffffffffffffffffff1663095ea7b33060016000858152602001908152602001600020600301546000604051602001526040518363ffffffff167c0100000000000000000000000000000000000000000000000000000000028152600401808373ffffffffffffffffffffffffffffffffffffffff1673ffffffffffffffffffffffffffffffffffffffff16815260200182815260200192505050602060405180830381600087803b1515610ddf57600080fd5b6102c65a03f11515610df057600080fd5b50505060405180519050504260016000838152602001908152602001600020600501541115610f8757600260009054906101000a900473ffffffffffffffffffffffffffffffffffffffff1673ffffffffffffffffffffffffffffffffffffffff166323b872dd306001600085815260200190815260200160002060000160009054906101000a900473ffffffffffffffffffffffffffffffffffffffff1660016000868152602001908152602001600020600301546000604051602001526040518463ffffffff167c0100000000000000000000000000000000000000000000000000000000028152600401808473ffffffffffffffffffffffffffffffffffffffff1673ffffffffffffffffffffffffffffffffffffffff1681526020018373ffffffffffffffffffffffffffffffffffffffff1673ffffffffffffffffffffffffffffffffffffffff1681526020018281526020019350505050602060405180830381600087803b1515610f6657600080fd5b6102c65a03f11515610f7757600080fd5b50505060405180519050506110f1565b600260009054906101000a900473ffffffffffffffffffffffffffffffffffffffff1673ffffffffffffffffffffffffffffffffffffffff166323b872dd306001600085815260200190815260200160002060010160009054906101000a900473ffffffffffffffffffffffffffffffffffffffff1660016000868152602001908152602001600020600301546000604051602001526040518463ffffffff167c0100000000000000000000000000000000000000000000000000000000028152600401808473ffffffffffffffffffffffffffffffffffffffff1673ffffffffffffffffffffffffffffffffffffffff1681526020018373ffffffffffffffffffffffffffffffffffffffff1673ffffffffffffffffffffffffffffffffffffffff1681526020018281526020019350505050602060405180830381600087803b15156110d457600080fd5b6102c65a03f115156110e557600080fd5b50505060405180519050505b60006001600083815260200190815260200160002060080160006101000a81548160ff0219169083600281111561112457fe5b02179055505b5b50565b6001600082815260200190815260200160002060000160009054906101000a900473ffffffffffffffffffffffffffffffffffffffff1673ffffffffffffffffffffffffffffffffffffffff163373ffffffffffffffffffffffffffffffffffffffff1614151561119e57600080fd5b60026001600083815260200190815260200160002060080160006101000a81548160ff021916908360028111156111d157fe5b021790555050565b6000806000806000806000806111ed611adc565b600160008b815260200190815260200160002060000160009054906101000a900473ffffffffffffffffffffffffffffffffffffffff169850600160008b8152602001908152602001600020600201549750600160008b8152602001908152602001600020600301549650600160008b8152602001908152602001600020600401549550600160008b8152602001908152602001600020600501549450600160008b8152602001908152602001600020600601549350600160008b8152602001908152602001600020600701549250600160008b815260200190815260200160002060080160009054906101000a900460ff1660028111156112eb57fe5b9150600160008b81526020019081526020016000206009018054600181600116156101000203166002900480601f0160208091040260200160405190810160405280929190818152602001828054600181600116156101000203166002900480156113975780601f1061136c57610100808354040283529160200191611397565b820191906000526020600020905b81548152906001019060200180831161137a57829003601f168201915b505050505090509193959799909294969850565b60006001600083815260200190815260200160002060030154600260009054906101000a900473ffffffffffffffffffffffffffffffffffffffff1673ffffffffffffffffffffffffffffffffffffffff166370a08231336000604051602001526040518263ffffffff167c0100000000000000000000000000000000000000000000000000000000028152600401808273ffffffffffffffffffffffffffffffffffffffff1673ffffffffffffffffffffffffffffffffffffffff168152602001915050602060405180830381600087803b151561148957600080fd5b6102c65a03f1151561149a57600080fd5b50505060405180519050101515156114b157600080fd5b600180600084815260200190815260200160002060080160006101000a81548160ff021916908360028111156114e357fe5b0217905550336001600084815260200190815260200160002060010160006101000a81548173ffffffffffffffffffffffffffffffffffffffff021916908373ffffffffffffffffffffffffffffffffffffffff160217905550600260009054906101000a900473ffffffffffffffffffffffffffffffffffffffff1673ffffffffffffffffffffffffffffffffffffffff166323b872dd333060016000878152602001908152602001600020600301546000604051602001526040518463ffffffff167c0100000000000000000000000000000000000000000000000000000000028152600401808473ffffffffffffffffffffffffffffffffffffffff1673ffffffffffffffffffffffffffffffffffffffff1681526020018373ffffffffffffffffffffffffffffffffffffffff1673ffffffffffffffffffffffffffffffffffffffff1681526020018281526020019350505050602060405180830381600087803b151561165457600080fd5b6102c65a03f1151561166557600080fd5b505050604051805190505060019050919050565b6001600082815260200190815260200160002060000160009054906101000a900473ffffffffffffffffffffffffffffffffffffffff1673ffffffffffffffffffffffffffffffffffffffff163373ffffffffffffffffffffffffffffffffffffffff161415156116e957600080fd5b600260009054906101000a900473ffffffffffffffffffffffffffffffffffffffff1673ffffffffffffffffffffffffffffffffffffffff1663095ea7b33060016000858152602001908152602001600020600301546000604051602001526040518363ffffffff167c0100000000000000000000000000000000000000000000000000000000028152600401808373ffffffffffffffffffffffffffffffffffffffff1673ffffffffffffffffffffffffffffffffffffffff16815260200182815260200192505050602060405180830381600087803b15156117cc57600080fd5b6102c65a03f115156117dd57600080fd5b5050506040518051905050600260009054906101000a900473ffffffffffffffffffffffffffffffffffffffff1673ffffffffffffffffffffffffffffffffffffffff166323b872dd306001600085815260200190815260200160002060010160009054906101000a900473ffffffffffffffffffffffffffffffffffffffff1660016000868152602001908152602001600020600301546000604051602001526040518463ffffffff167c0100000000000000000000000000000000000000000000000000000000028152600401808473ffffffffffffffffffffffffffffffffffffffff1673ffffffffffffffffffffffffffffffffffffffff1681526020018373ffffffffffffffffffffffffffffffffffffffff1673ffffffffffffffffffffffffffffffffffffffff1681526020018281526020019350505050602060405180830381600087803b151561193557600080fd5b6102c65a03f1151561194657600080fd5b505050604051805190505060016000828152602001908152602001600020600080820160006101000a81549073ffffffffffffffffffffffffffffffffffffffff02191690556001820160006101000a81549073ffffffffffffffffffffffffffffffffffffffff02191690556002820160009055600382016000905560048201600090556005820160009055600682016000905560078201600090556008820160006101000a81549060ff0219169055600982016000611a079190611a94565b600a820160009055505050565b828054600181600116156101000203166002900490600052602060002090601f016020900481019282601f10611a5557805160ff1916838001178555611a83565b82800160010185558215611a83579182015b82811115611a82578251825591602001919060010190611a67565b5b509050611a909190611af0565b5090565b50805460018160011615610100020316600290046000825580601f10611aba5750611ad9565b601f016020900490600052602060002090810190611ad89190611af0565b5b50565b602060405190810160405280600081525090565b611b1291905b80821115611b0e576000816000905550600101611af6565b5090565b905600a165627a7a72305820917a4565de531a8313e5d82f26bdfc0b87da9f44e157564f49643225a363485a0029",
  "source": "pragma solidity ^0.4.19;\r\n\r\nimport \"./BTU.sol\";\r\n\r\ncontract RES {\r\n    // Booking status\r\n    enum AvailabilityStatus { AVAILABLE, REQUESTED, CONFIRMED }\r\n\r\n    // Booking structure\r\n    struct Availability {\r\n        address                 _provider;\r\n        address                 _booker;\r\n        uint                    _type;                  // Type of Availability\r\n        uint                    _minDeposit;            // minimum BTU deposit for booking this resource\r\n        uint                    _commission;            // commission amount paid to booker in BTU\r\n        uint                    _freeCancelDateTs;      // Limit date for a reservation cancellation\r\n        uint                    _startDateTs;           // availability start date timestamps\r\n        uint                    _endDateTs;             // availability end date timestamps\r\n        AvailabilityStatus      _availabilityStatus;    // reservation status\r\n        string                  _metaDataLink;          // Link to Meta Data of the bookable resource\r\n        bytes32                 _signature;             // Signed hash of the availability data\r\n    }\r\n\r\n    // resourceID is the current id of the Availability. It is incremented as a new one is published\r\n    uint private resourceID;\r\n    // Availabilities is a map where the key is the reourceID\r\n    mapping (uint => Availability) private availabilities;\r\n\r\n    event NewAvailabilityEvent(uint id);\r\n\r\n    BTU private token;\r\n\r\n    function RES(address btuAddress) public {\r\n        token = BTU(btuAddress);\r\n    }\r\n\r\n    function setBTUToken(address btuAddress) external {\r\n        require (btuAddress != address(0) && token == address(0));\r\n        token = BTU(btuAddress);\r\n    }\r\n\r\n    function publishAvailability(uint aType, uint minDeposit, uint commission, uint freeCancelDateTs,\r\n                                 uint startDateTs, uint endDateTs, string metaDataLink)\r\n    public returns (uint _resourceID) {\r\n\r\n        var availability = availabilities[resourceID];\r\n        availability._provider = msg.sender;\r\n        availability._type = aType;\r\n        availability._minDeposit = minDeposit;\r\n        availability._commission = commission;\r\n        availability._freeCancelDateTs = freeCancelDateTs;\r\n        availability._startDateTs = startDateTs;\r\n        availability._endDateTs = endDateTs;\r\n        availability._availabilityStatus = AvailabilityStatus.AVAILABLE;\r\n        availability._metaDataLink = metaDataLink;\r\n        _resourceID = resourceID;\r\n        NewAvailabilityEvent(resourceID++);\r\n    }\r\n\r\n    function getAvailabilityNumber() public view\r\n    returns (uint number) {\r\n        number = resourceID;\r\n    }\r\n\r\n    function getAvailability(uint _resourceID) public view\r\n    returns (address provider, uint aType, uint minDeposit, uint commission,\r\n             uint freeCancelDateTs, uint startDateTs, uint endDateTs,\r\n             uint availabilityStatus, string metaDataLink) {\r\n\r\n        provider = availabilities[_resourceID]._provider;\r\n        aType = availabilities[_resourceID]._type;\r\n        minDeposit = availabilities[_resourceID]._minDeposit;\r\n        commission = availabilities[_resourceID]._commission;\r\n        freeCancelDateTs = availabilities[_resourceID]._freeCancelDateTs;\r\n        startDateTs = availabilities[_resourceID]._startDateTs;\r\n        endDateTs = availabilities[_resourceID]._endDateTs;\r\n        availabilityStatus = uint(availabilities[_resourceID]._availabilityStatus);\r\n        metaDataLink = availabilities[_resourceID]._metaDataLink;\r\n    }\r\n\r\n    function requestReservation(uint _resourceID) public payable\r\n    returns (bool status) {\r\n\r\n        require(token.balanceOf(msg.sender) >= availabilities[_resourceID]._minDeposit);\r\n        availabilities[_resourceID]._availabilityStatus = AvailabilityStatus.REQUESTED;\r\n        availabilities[_resourceID]._booker = msg.sender;\r\n        token.transferFrom(msg.sender, this, availabilities[_resourceID]._minDeposit);\r\n        status = true;\r\n    }\r\n\r\n    function acceptReservation(uint _resourceID) public {\r\n        require(msg.sender == availabilities[_resourceID]._provider);\r\n        availabilities[_resourceID]._availabilityStatus = AvailabilityStatus.CONFIRMED;\r\n    }\r\n\r\n    function cancelReservation(uint _resourceID) public {\r\n        // Check that msg.sender is the booker\r\n        if (msg.sender == availabilities[_resourceID]._provider) {\r\n            token.approve(this, availabilities[_resourceID]._minDeposit);\r\n            token.transferFrom(this, availabilities[_resourceID]._booker, availabilities[_resourceID]._minDeposit);\r\n            delete availabilities[_resourceID];\r\n        } else if (msg.sender == availabilities[_resourceID]._booker) {\r\n            token.approve(this, availabilities[_resourceID]._minDeposit);\r\n\r\n            if (availabilities[_resourceID]._freeCancelDateTs > now) {\r\n                token.transferFrom(this, availabilities[_resourceID]._provider, availabilities[_resourceID]._minDeposit);\r\n            } else {\r\n                token.transferFrom(this, availabilities[_resourceID]._booker, availabilities[_resourceID]._minDeposit);\r\n            }\r\n            availabilities[_resourceID]._availabilityStatus = AvailabilityStatus.AVAILABLE;\r\n        }\r\n    }\r\n\r\n    function completeTransaction(uint _resourceID) public {\r\n        require(msg.sender == availabilities[_resourceID]._provider);\r\n        token.approve(this, availabilities[_resourceID]._minDeposit);\r\n        token.transferFrom(this, availabilities[_resourceID]._booker, availabilities[_resourceID]._minDeposit);\r\n        delete availabilities[_resourceID];\r\n    }\r\n\r\n    function rejectTransaction(uint _resourceID) public {\r\n        require(msg.sender == availabilities[_resourceID]._provider);\r\n        token.approve(this, availabilities[_resourceID]._minDeposit);\r\n        token.transferFrom(this, availabilities[_resourceID]._booker, availabilities[_resourceID]._minDeposit);\r\n        availabilities[_resourceID]._availabilityStatus = AvailabilityStatus.AVAILABLE;\r\n    }\r\n\r\n    function getReservationStatus(uint _resourceID) public view\r\n    returns (uint status) {\r\n\r\n        status = uint(availabilities[_resourceID]._availabilityStatus);\r\n    }\r\n}\r\n",
  "sourcePath": "C:\\Users\\aurelien\\Documents\\BTU\\init_official_repository\\btuprotocol-implementation-earth\\RES\\contracts\\RES.sol",
  "compiler": {
    "name": "solc",
    "version": "0.4.19+commit.c4cbbb05.Emscripten.clang"
  },
  "schemaVersion": "2.0.0",
  "updatedAt": "2018-04-07T12:32:06.531Z"
}