{
  "contractName": "RES",
  "abi": [
    {
      "inputs": [
        {
          "name": "btuAddress",
          "type": "address"
        }
      ],
      "payable": false,
      "stateMutability": "nonpayable",
      "type": "constructor"
    },
    {
      "anonymous": false,
      "inputs": [
        {
          "indexed": false,
          "name": "id",
          "type": "uint256"
        }
      ],
      "name": "NewAvailabilityEvent",
      "type": "event"
    },
    {
      "constant": false,
      "inputs": [
        {
          "name": "btuAddress",
          "type": "address"
        }
      ],
      "name": "setBTUToken",
      "outputs": [],
      "payable": false,
      "stateMutability": "nonpayable",
      "type": "function"
    },
    {
      "constant": false,
      "inputs": [
        {
          "name": "aType",
          "type": "uint256"
        },
        {
          "name": "minDeposit",
          "type": "uint256"
        },
        {
          "name": "commission",
          "type": "uint256"
        },
        {
          "name": "freeCancelDateTs",
          "type": "uint256"
        },
        {
          "name": "startDateTs",
          "type": "uint256"
        },
        {
          "name": "endDateTs",
          "type": "uint256"
        },
        {
          "name": "metaDataLink",
          "type": "string"
        }
      ],
      "name": "publishAvailability",
      "outputs": [
        {
          "name": "_resourceID",
          "type": "uint256"
        }
      ],
      "payable": false,
      "stateMutability": "nonpayable",
      "type": "function"
    },
    {
      "constant": true,
      "inputs": [],
      "name": "getAvailabilityNumber",
      "outputs": [
        {
          "name": "number",
          "type": "uint256"
        }
      ],
      "payable": false,
      "stateMutability": "view",
      "type": "function"
    },
    {
      "constant": true,
      "inputs": [
        {
          "name": "_resourceID",
          "type": "uint256"
        }
      ],
      "name": "getAvailability",
      "outputs": [
        {
          "name": "provider",
          "type": "address"
        },
        {
          "name": "aType",
          "type": "uint256"
        },
        {
          "name": "minDeposit",
          "type": "uint256"
        },
        {
          "name": "commission",
          "type": "uint256"
        },
        {
          "name": "freeCancelDateTs",
          "type": "uint256"
        },
        {
          "name": "startDateTs",
          "type": "uint256"
        },
        {
          "name": "endDateTs",
          "type": "uint256"
        },
        {
          "name": "availabilityStatus",
          "type": "uint256"
        },
        {
          "name": "metaDataLink",
          "type": "string"
        }
      ],
      "payable": false,
      "stateMutability": "view",
      "type": "function"
    },
    {
      "constant": false,
      "inputs": [
        {
          "name": "_resourceID",
          "type": "uint256"
        }
      ],
      "name": "requestReservation",
      "outputs": [
        {
          "name": "status",
          "type": "bool"
        }
      ],
      "payable": true,
      "stateMutability": "payable",
      "type": "function"
    },
    {
      "constant": false,
      "inputs": [
        {
          "name": "_resourceID",
          "type": "uint256"
        }
      ],
      "name": "acceptReservation",
      "outputs": [],
      "payable": false,
      "stateMutability": "nonpayable",
      "type": "function"
    },
    {
      "constant": false,
      "inputs": [
        {
          "name": "_resourceID",
          "type": "uint256"
        }
      ],
      "name": "cancelReservation",
      "outputs": [],
      "payable": false,
      "stateMutability": "nonpayable",
      "type": "function"
    },
    {
      "constant": false,
      "inputs": [
        {
          "name": "_resourceID",
          "type": "uint256"
        }
      ],
      "name": "completeTransaction",
      "outputs": [],
      "payable": false,
      "stateMutability": "nonpayable",
      "type": "function"
    },
    {
      "constant": false,
      "inputs": [
        {
          "name": "_resourceID",
          "type": "uint256"
        }
      ],
      "name": "rejectTransaction",
      "outputs": [],
      "payable": false,
      "stateMutability": "nonpayable",
      "type": "function"
    },
    {
      "constant": true,
      "inputs": [
        {
          "name": "_resourceID",
          "type": "uint256"
        }
      ],
      "name": "getReservationStatus",
      "outputs": [
        {
          "name": "status",
          "type": "uint256"
        }
      ],
      "payable": false,
      "stateMutability": "view",
      "type": "function"
    }
  ],
  "bytecode": "0x6060604052341561000f57600080fd5b604051602080611b2e8339810160405280805190602001909190505080600260006101000a81548173ffffffffffffffffffffffffffffffffffffffff021916908373ffffffffffffffffffffffffffffffffffffffff16021790555050611ab28061007c6000396000f3006060604052600436106100a4576000357c0100000000000000000000000000000000000000000000000000000000900463ffffffff16806305bf37aa146100a957806332db4acf146100cc5780633eb3e25e146100f55780637b533fb31461012c578063ada858f6146101d3578063ae5e6cf41461020c578063b48199131461022f578063cd6a8eca14610252578063eab835da14610352578063f5e83e1714610382575b600080fd5b34156100b457600080fd5b6100ca60048080359060200190919050506103a5565b005b34156100d757600080fd5b6100df61069e565b6040518082815260200191505060405180910390f35b341561010057600080fd5b61011660048080359060200190919050506106a7565b6040518082815260200191505060405180910390f35b341561013757600080fd5b6101bd600480803590602001909190803590602001909190803590602001909190803590602001909190803590602001909190803590602001909190803590602001908201803590602001908080601f016020809104026020016040519081016040528093929190818152602001838380828437820191505050505050919050506106df565b6040518082815260200191505060405180910390f35b34156101de57600080fd5b61020a600480803573ffffffffffffffffffffffffffffffffffffffff16906020019091905050610807565b005b341561021757600080fd5b61022d60048080359060200190919050506108e1565b005b341561023a57600080fd5b61025060048080359060200190919050506110d3565b005b341561025d57600080fd5b610273600480803590602001909190505061117e565b604051808a73ffffffffffffffffffffffffffffffffffffffff1673ffffffffffffffffffffffffffffffffffffffff16815260200189815260200188815260200187815260200186815260200185815260200184815260200183815260200180602001828103825283818151815260200191508051906020019080838360005b8381101561030f5780820151818401526020810190506102f4565b50505050905090810190601f16801561033c5780820380516001836020036101000a031916815260200191505b509a505050505050505050505060405180910390f35b6103686004808035906020019091905050611350565b604051808215151515815260200191505060405180910390f35b341561038d57600080fd5b6103a36004808035906020019091905050611604565b005b6001600082815260200190815260200160002060000160009054906101000a900473ffffffffffffffffffffffffffffffffffffffff1673ffffffffffffffffffffffffffffffffffffffff163373ffffffffffffffffffffffffffffffffffffffff1614151561041557600080fd5b600260009054906101000a900473ffffffffffffffffffffffffffffffffffffffff1673ffffffffffffffffffffffffffffffffffffffff1663095ea7b33060016000858152602001908152602001600020600301546040518363ffffffff167c0100000000000000000000000000000000000000000000000000000000028152600401808373ffffffffffffffffffffffffffffffffffffffff1673ffffffffffffffffffffffffffffffffffffffff16815260200182815260200192505050602060405180830381600087803b15156104ef57600080fd5b5af115156104fc57600080fd5b5050506040518051905050600260009054906101000a900473ffffffffffffffffffffffffffffffffffffffff1673ffffffffffffffffffffffffffffffffffffffff166323b872dd306001600085815260200190815260200160002060010160009054906101000a900473ffffffffffffffffffffffffffffffffffffffff1660016000868152602001908152602001600020600301546040518463ffffffff167c0100000000000000000000000000000000000000000000000000000000028152600401808473ffffffffffffffffffffffffffffffffffffffff1673ffffffffffffffffffffffffffffffffffffffff1681526020018373ffffffffffffffffffffffffffffffffffffffff1673ffffffffffffffffffffffffffffffffffffffff1681526020018281526020019350505050602060405180830381600087803b151561064b57600080fd5b5af1151561065857600080fd5b505050604051805190505060006001600083815260200190815260200160002060080160006101000a81548160ff0219169083600281111561069657fe5b021790555050565b60008054905090565b60006001600083815260200190815260200160002060080160009054906101000a900460ff1660028111156106d857fe5b9050919050565b60008060016000805481526020019081526020016000209050338160000160006101000a81548173ffffffffffffffffffffffffffffffffffffffff021916908373ffffffffffffffffffffffffffffffffffffffff16021790555088816002018190555087816003018190555086816004018190555085816005018190555084816006018190555083816007018190555060008160080160006101000a81548160ff0219169083600281111561079257fe5b0217905550828160090190805190602001906107af929190611985565b5060005491507ff0c95675f4661b504b7dc5f91f6f2d413ce23b3e7f77735b5fd3e49f1caec3d6600080815480929190600101919050556040518082815260200191505060405180910390a150979650505050505050565b600073ffffffffffffffffffffffffffffffffffffffff168173ffffffffffffffffffffffffffffffffffffffff16141580156108925750600073ffffffffffffffffffffffffffffffffffffffff16600260009054906101000a900473ffffffffffffffffffffffffffffffffffffffff1673ffffffffffffffffffffffffffffffffffffffff16145b151561089d57600080fd5b80600260006101000a81548173ffffffffffffffffffffffffffffffffffffffff021916908373ffffffffffffffffffffffffffffffffffffffff16021790555050565b6001600082815260200190815260200160002060000160009054906101000a900473ffffffffffffffffffffffffffffffffffffffff1673ffffffffffffffffffffffffffffffffffffffff163373ffffffffffffffffffffffffffffffffffffffff161415610c5e57600260009054906101000a900473ffffffffffffffffffffffffffffffffffffffff1673ffffffffffffffffffffffffffffffffffffffff1663095ea7b33060016000858152602001908152602001600020600301546040518363ffffffff167c0100000000000000000000000000000000000000000000000000000000028152600401808373ffffffffffffffffffffffffffffffffffffffff1673ffffffffffffffffffffffffffffffffffffffff16815260200182815260200192505050602060405180830381600087803b1515610a2557600080fd5b5af11515610a3257600080fd5b5050506040518051905050600260009054906101000a900473ffffffffffffffffffffffffffffffffffffffff1673ffffffffffffffffffffffffffffffffffffffff166323b872dd306001600085815260200190815260200160002060010160009054906101000a900473ffffffffffffffffffffffffffffffffffffffff1660016000868152602001908152602001600020600301546040518463ffffffff167c0100000000000000000000000000000000000000000000000000000000028152600401808473ffffffffffffffffffffffffffffffffffffffff1673ffffffffffffffffffffffffffffffffffffffff1681526020018373ffffffffffffffffffffffffffffffffffffffff1673ffffffffffffffffffffffffffffffffffffffff1681526020018281526020019350505050602060405180830381600087803b1515610b8157600080fd5b5af11515610b8e57600080fd5b505050604051805190505060016000828152602001908152602001600020600080820160006101000a81549073ffffffffffffffffffffffffffffffffffffffff02191690556001820160006101000a81549073ffffffffffffffffffffffffffffffffffffffff02191690556002820160009055600382016000905560048201600090556005820160009055600682016000905560078201600090556008820160006101000a81549060ff0219169055600982016000610c4f9190611a05565b600a82016000905550506110d0565b6001600082815260200190815260200160002060010160009054906101000a900473ffffffffffffffffffffffffffffffffffffffff1673ffffffffffffffffffffffffffffffffffffffff163373ffffffffffffffffffffffffffffffffffffffff1614156110cf57600260009054906101000a900473ffffffffffffffffffffffffffffffffffffffff1673ffffffffffffffffffffffffffffffffffffffff1663095ea7b33060016000858152602001908152602001600020600301546040518363ffffffff167c0100000000000000000000000000000000000000000000000000000000028152600401808373ffffffffffffffffffffffffffffffffffffffff1673ffffffffffffffffffffffffffffffffffffffff16815260200182815260200192505050602060405180830381600087803b1515610da257600080fd5b5af11515610daf57600080fd5b50505060405180519050504260016000838152602001908152602001600020600501541115610f3957600260009054906101000a900473ffffffffffffffffffffffffffffffffffffffff1673ffffffffffffffffffffffffffffffffffffffff166323b872dd306001600085815260200190815260200160002060000160009054906101000a900473ffffffffffffffffffffffffffffffffffffffff1660016000868152602001908152602001600020600301546040518463ffffffff167c0100000000000000000000000000000000000000000000000000000000028152600401808473ffffffffffffffffffffffffffffffffffffffff1673ffffffffffffffffffffffffffffffffffffffff1681526020018373ffffffffffffffffffffffffffffffffffffffff1673ffffffffffffffffffffffffffffffffffffffff1681526020018281526020019350505050602060405180830381600087803b1515610f1c57600080fd5b5af11515610f2957600080fd5b5050506040518051905050611096565b600260009054906101000a900473ffffffffffffffffffffffffffffffffffffffff1673ffffffffffffffffffffffffffffffffffffffff166323b872dd306001600085815260200190815260200160002060010160009054906101000a900473ffffffffffffffffffffffffffffffffffffffff1660016000868152602001908152602001600020600301546040518463ffffffff167c0100000000000000000000000000000000000000000000000000000000028152600401808473ffffffffffffffffffffffffffffffffffffffff1673ffffffffffffffffffffffffffffffffffffffff1681526020018373ffffffffffffffffffffffffffffffffffffffff1673ffffffffffffffffffffffffffffffffffffffff1681526020018281526020019350505050602060405180830381600087803b151561107d57600080fd5b5af1151561108a57600080fd5b50505060405180519050505b60006001600083815260200190815260200160002060080160006101000a81548160ff021916908360028111156110c957fe5b02179055505b5b50565b6001600082815260200190815260200160002060000160009054906101000a900473ffffffffffffffffffffffffffffffffffffffff1673ffffffffffffffffffffffffffffffffffffffff163373ffffffffffffffffffffffffffffffffffffffff1614151561114357600080fd5b60026001600083815260200190815260200160002060080160006101000a81548160ff0219169083600281111561117657fe5b021790555050565b600080600080600080600080611192611a4d565b600160008b815260200190815260200160002060000160009054906101000a900473ffffffffffffffffffffffffffffffffffffffff169850600160008b8152602001908152602001600020600201549750600160008b8152602001908152602001600020600301549650600160008b8152602001908152602001600020600401549550600160008b8152602001908152602001600020600501549450600160008b8152602001908152602001600020600601549350600160008b8152602001908152602001600020600701549250600160008b815260200190815260200160002060080160009054906101000a900460ff16600281111561129057fe5b9150600160008b81526020019081526020016000206009018054600181600116156101000203166002900480601f01602080910402602001604051908101604052809291908181526020018280546001816001161561010002031660029004801561133c5780601f106113115761010080835404028352916020019161133c565b820191906000526020600020905b81548152906001019060200180831161131f57829003601f168201915b505050505090509193959799909294969850565b60006001600083815260200190815260200160002060030154600260009054906101000a900473ffffffffffffffffffffffffffffffffffffffff1673ffffffffffffffffffffffffffffffffffffffff166370a08231336040518263ffffffff167c0100000000000000000000000000000000000000000000000000000000028152600401808273ffffffffffffffffffffffffffffffffffffffff1673ffffffffffffffffffffffffffffffffffffffff168152602001915050602060405180830381600087803b151561142557600080fd5b5af1151561143257600080fd5b505050604051805190501015151561144957600080fd5b600180600084815260200190815260200160002060080160006101000a81548160ff0219169083600281111561147b57fe5b0217905550336001600084815260200190815260200160002060010160006101000a81548173ffffffffffffffffffffffffffffffffffffffff021916908373ffffffffffffffffffffffffffffffffffffffff160217905550600260009054906101000a900473ffffffffffffffffffffffffffffffffffffffff1673ffffffffffffffffffffffffffffffffffffffff166323b872dd333060016000878152602001908152602001600020600301546040518463ffffffff167c0100000000000000000000000000000000000000000000000000000000028152600401808473ffffffffffffffffffffffffffffffffffffffff1673ffffffffffffffffffffffffffffffffffffffff1681526020018373ffffffffffffffffffffffffffffffffffffffff1673ffffffffffffffffffffffffffffffffffffffff1681526020018281526020019350505050602060405180830381600087803b15156115e357600080fd5b5af115156115f057600080fd5b505050604051805190505060019050919050565b6001600082815260200190815260200160002060000160009054906101000a900473ffffffffffffffffffffffffffffffffffffffff1673ffffffffffffffffffffffffffffffffffffffff163373ffffffffffffffffffffffffffffffffffffffff1614151561167457600080fd5b600260009054906101000a900473ffffffffffffffffffffffffffffffffffffffff1673ffffffffffffffffffffffffffffffffffffffff1663095ea7b33060016000858152602001908152602001600020600301546040518363ffffffff167c0100000000000000000000000000000000000000000000000000000000028152600401808373ffffffffffffffffffffffffffffffffffffffff1673ffffffffffffffffffffffffffffffffffffffff16815260200182815260200192505050602060405180830381600087803b151561174e57600080fd5b5af1151561175b57600080fd5b5050506040518051905050600260009054906101000a900473ffffffffffffffffffffffffffffffffffffffff1673ffffffffffffffffffffffffffffffffffffffff166323b872dd306001600085815260200190815260200160002060010160009054906101000a900473ffffffffffffffffffffffffffffffffffffffff1660016000868152602001908152602001600020600301546040518463ffffffff167c0100000000000000000000000000000000000000000000000000000000028152600401808473ffffffffffffffffffffffffffffffffffffffff1673ffffffffffffffffffffffffffffffffffffffff1681526020018373ffffffffffffffffffffffffffffffffffffffff1673ffffffffffffffffffffffffffffffffffffffff1681526020018281526020019350505050602060405180830381600087803b15156118aa57600080fd5b5af115156118b757600080fd5b505050604051805190505060016000828152602001908152602001600020600080820160006101000a81549073ffffffffffffffffffffffffffffffffffffffff02191690556001820160006101000a81549073ffffffffffffffffffffffffffffffffffffffff02191690556002820160009055600382016000905560048201600090556005820160009055600682016000905560078201600090556008820160006101000a81549060ff02191690556009820160006119789190611a05565b600a820160009055505050565b828054600181600116156101000203166002900490600052602060002090601f016020900481019282601f106119c657805160ff19168380011785556119f4565b828001600101855582156119f4579182015b828111156119f35782518255916020019190600101906119d8565b5b509050611a019190611a61565b5090565b50805460018160011615610100020316600290046000825580601f10611a2b5750611a4a565b601f016020900490600052602060002090810190611a499190611a61565b5b50565b602060405190810160405280600081525090565b611a8391905b80821115611a7f576000816000905550600101611a67565b5090565b905600a165627a7a723058200969ea9b36575c6a0d4f44be02f1494b5ced0939ce8a800d0a50c7dfff88c87b0029",
  "source": "pragma solidity ^0.4.19;\n\nimport \"./BTU.sol\";\n\ncontract RES {\n    // Booking status\n    enum AvailabilityStatus { AVAILABLE, REQUESTED, CONFIRMED }\n\n    // Booking structure\n    struct Availability {\n        address                 _provider;\n        address                 _booker;\n        uint                    _type;                  // Type of Availability\n        uint                    _minDeposit;            // minimum BTU deposit for booking this resource\n        uint                    _commission;            // commission amount paid to booker in BTU\n        uint                    _freeCancelDateTs;      // Limit date for a reservation cancellation\n        uint                    _startDateTs;           // availability start date timestamps\n        uint                    _endDateTs;             // availability end date timestamps\n        AvailabilityStatus      _availabilityStatus;    // reservation status\n        string                  _metaDataLink;          // Link to Meta Data of the bookable resource\n        bytes32                 _signature;             // Signed hash of the availability data\n    }\n\n    // resourceID is the current id of the Availability. It is incremented as a new one is published\n    uint private resourceID;\n    // Availabilities is a map where the key is the reourceID\n    mapping (uint => Availability) private availabilities;\n\n    event NewAvailabilityEvent(uint id);\n\n    BTU private token;\n\n    function RES(address btuAddress) public {\n        token = BTU(btuAddress);\n    }\n\n    function setBTUToken(address btuAddress) external {\n        require (btuAddress != address(0) && token == address(0));\n        token = BTU(btuAddress);\n    }\n\n    function publishAvailability(uint aType, uint minDeposit, uint commission, uint freeCancelDateTs,\n                                 uint startDateTs, uint endDateTs, string metaDataLink)\n    public returns (uint _resourceID) {\n\n        var availability = availabilities[resourceID];\n        availability._provider = msg.sender;\n        availability._type = aType;\n        availability._minDeposit = minDeposit;\n        availability._commission = commission;\n        availability._freeCancelDateTs = freeCancelDateTs;\n        availability._startDateTs = startDateTs;\n        availability._endDateTs = endDateTs;\n        availability._availabilityStatus = AvailabilityStatus.AVAILABLE;\n        availability._metaDataLink = metaDataLink;\n        _resourceID = resourceID;\n        NewAvailabilityEvent(resourceID++);\n    }\n\n    function getAvailabilityNumber() public view\n    returns (uint number) {\n        number = resourceID;\n    }\n\n    function getAvailability(uint _resourceID) public view\n    returns (address provider, uint aType, uint minDeposit, uint commission,\n             uint freeCancelDateTs, uint startDateTs, uint endDateTs,\n             uint availabilityStatus, string metaDataLink) {\n\n        provider = availabilities[_resourceID]._provider;\n        aType = availabilities[_resourceID]._type;\n        minDeposit = availabilities[_resourceID]._minDeposit;\n        commission = availabilities[_resourceID]._commission;\n        freeCancelDateTs = availabilities[_resourceID]._freeCancelDateTs;\n        startDateTs = availabilities[_resourceID]._startDateTs;\n        endDateTs = availabilities[_resourceID]._endDateTs;\n        availabilityStatus = uint(availabilities[_resourceID]._availabilityStatus);\n        metaDataLink = availabilities[_resourceID]._metaDataLink;\n    }\n\n    function requestReservation(uint _resourceID) public payable\n    returns (bool status) {\n\n        require(token.balanceOf(msg.sender) >= availabilities[_resourceID]._minDeposit);\n        availabilities[_resourceID]._availabilityStatus = AvailabilityStatus.REQUESTED;\n        availabilities[_resourceID]._booker = msg.sender;\n        token.transferFrom(msg.sender, this, availabilities[_resourceID]._minDeposit);\n        status = true;\n    }\n\n    function acceptReservation(uint _resourceID) public {\n        require(msg.sender == availabilities[_resourceID]._provider);\n        availabilities[_resourceID]._availabilityStatus = AvailabilityStatus.CONFIRMED;\n    }\n\n    function cancelReservation(uint _resourceID) public {\n        // Check that msg.sender is the booker\n        if (msg.sender == availabilities[_resourceID]._provider) {\n            token.approve(this, availabilities[_resourceID]._minDeposit);\n            token.transferFrom(this, availabilities[_resourceID]._booker, availabilities[_resourceID]._minDeposit);\n            delete availabilities[_resourceID];\n        } else if (msg.sender == availabilities[_resourceID]._booker) {\n            token.approve(this, availabilities[_resourceID]._minDeposit);\n\n            if (availabilities[_resourceID]._freeCancelDateTs > now) {\n                token.transferFrom(this, availabilities[_resourceID]._provider, availabilities[_resourceID]._minDeposit);\n            } else {\n                token.transferFrom(this, availabilities[_resourceID]._booker, availabilities[_resourceID]._minDeposit);\n            }\n            availabilities[_resourceID]._availabilityStatus = AvailabilityStatus.AVAILABLE;\n        }\n    }\n\n    function completeTransaction(uint _resourceID) public {\n        require(msg.sender == availabilities[_resourceID]._provider);\n        token.approve(this, availabilities[_resourceID]._minDeposit);\n        token.transferFrom(this, availabilities[_resourceID]._booker, availabilities[_resourceID]._minDeposit);\n        delete availabilities[_resourceID];\n    }\n\n    function rejectTransaction(uint _resourceID) public {\n        require(msg.sender == availabilities[_resourceID]._provider);\n        token.approve(this, availabilities[_resourceID]._minDeposit);\n        token.transferFrom(this, availabilities[_resourceID]._booker, availabilities[_resourceID]._minDeposit);\n        availabilities[_resourceID]._availabilityStatus = AvailabilityStatus.AVAILABLE;\n    }\n\n    function getReservationStatus(uint _resourceID) public view\n    returns (uint status) {\n\n        status = uint(availabilities[_resourceID]._availabilityStatus);\n    }\n}\n",
  "sourcePath": "/home/admin/Documents/Projects/BTUToken/btuprotocol-implementation-earth/RES/contracts/RES.sol",
  "compiler": {
    "name": "solc",
    "version": "0.4.21+commit.dfe3193c.Emscripten.clang"
  },
  "schemaVersion": "2.0.0",
  "updatedAt": "2018-04-08T13:15:52.913Z"
}