{
  "contractName": "BTUTokenSale",
  "abi": [
    {
      "constant": true,
      "inputs": [],
      "name": "FROST_FOUNDERS_FACTOR",
      "outputs": [
        {
          "name": "",
          "type": "uint256"
        }
      ],
      "payable": false,
      "stateMutability": "view",
      "type": "function"
    },
    {
      "constant": true,
      "inputs": [],
      "name": "FROST_COMPANY_FACTOR",
      "outputs": [
        {
          "name": "",
          "type": "uint256"
        }
      ],
      "payable": false,
      "stateMutability": "view",
      "type": "function"
    },
    {
      "constant": true,
      "inputs": [],
      "name": "SALE_START_DATE",
      "outputs": [
        {
          "name": "",
          "type": "uint256"
        }
      ],
      "payable": false,
      "stateMutability": "view",
      "type": "function"
    },
    {
      "constant": true,
      "inputs": [],
      "name": "FROST_BOUNTY_FACTOR",
      "outputs": [
        {
          "name": "",
          "type": "uint256"
        }
      ],
      "payable": false,
      "stateMutability": "view",
      "type": "function"
    },
    {
      "constant": true,
      "inputs": [],
      "name": "assignedTokens",
      "outputs": [
        {
          "name": "",
          "type": "uint256"
        }
      ],
      "payable": false,
      "stateMutability": "view",
      "type": "function"
    },
    {
      "constant": true,
      "inputs": [],
      "name": "companyReserved",
      "outputs": [
        {
          "name": "",
          "type": "uint256"
        }
      ],
      "payable": false,
      "stateMutability": "view",
      "type": "function"
    },
    {
      "constant": true,
      "inputs": [],
      "name": "FROSTED_FOUNDERS_LOCKUP",
      "outputs": [
        {
          "name": "",
          "type": "uint256"
        }
      ],
      "payable": false,
      "stateMutability": "view",
      "type": "function"
    },
    {
      "constant": true,
      "inputs": [],
      "name": "owner",
      "outputs": [
        {
          "name": "",
          "type": "address"
        }
      ],
      "payable": false,
      "stateMutability": "view",
      "type": "function"
    },
    {
      "constant": true,
      "inputs": [],
      "name": "foundersReserved",
      "outputs": [
        {
          "name": "",
          "type": "uint256"
        }
      ],
      "payable": false,
      "stateMutability": "view",
      "type": "function"
    },
    {
      "constant": true,
      "inputs": [],
      "name": "FROSTED_COMPANY_LOCKUP",
      "outputs": [
        {
          "name": "",
          "type": "uint256"
        }
      ],
      "payable": false,
      "stateMutability": "view",
      "type": "function"
    },
    {
      "constant": true,
      "inputs": [],
      "name": "btuToken",
      "outputs": [
        {
          "name": "",
          "type": "address"
        }
      ],
      "payable": false,
      "stateMutability": "view",
      "type": "function"
    },
    {
      "constant": true,
      "inputs": [],
      "name": "bountyReserved",
      "outputs": [
        {
          "name": "",
          "type": "uint256"
        }
      ],
      "payable": false,
      "stateMutability": "view",
      "type": "function"
    },
    {
      "constant": false,
      "inputs": [
        {
          "name": "newOwner",
          "type": "address"
        }
      ],
      "name": "transferOwnership",
      "outputs": [],
      "payable": false,
      "stateMutability": "nonpayable",
      "type": "function"
    },
    {
      "inputs": [],
      "payable": false,
      "stateMutability": "nonpayable",
      "type": "constructor"
    },
    {
      "anonymous": false,
      "inputs": [
        {
          "indexed": true,
          "name": "previousOwner",
          "type": "address"
        },
        {
          "indexed": true,
          "name": "newOwner",
          "type": "address"
        }
      ],
      "name": "OwnershipTransferred",
      "type": "event"
    },
    {
      "constant": false,
      "inputs": [
        {
          "name": "_batchAddr",
          "type": "address[]"
        },
        {
          "name": "_batchAmount",
          "type": "uint256[]"
        }
      ],
      "name": "assignTokens",
      "outputs": [],
      "payable": false,
      "stateMutability": "nonpayable",
      "type": "function"
    },
    {
      "constant": false,
      "inputs": [
        {
          "name": "_companyAddress",
          "type": "address"
        },
        {
          "name": "_foundersAddress",
          "type": "address"
        },
        {
          "name": "_bountyAddress",
          "type": "address"
        }
      ],
      "name": "setupFrostedAccounts",
      "outputs": [],
      "payable": false,
      "stateMutability": "nonpayable",
      "type": "function"
    },
    {
      "constant": false,
      "inputs": [],
      "name": "defrostCompanyTokens",
      "outputs": [],
      "payable": false,
      "stateMutability": "nonpayable",
      "type": "function"
    },
    {
      "constant": false,
      "inputs": [],
      "name": "defrostFoundersTokens",
      "outputs": [],
      "payable": false,
      "stateMutability": "nonpayable",
      "type": "function"
    },
    {
      "constant": false,
      "inputs": [],
      "name": "defrostBountyTokens",
      "outputs": [],
      "payable": false,
      "stateMutability": "nonpayable",
      "type": "function"
    },
    {
      "constant": false,
      "inputs": [],
      "name": "destructContract",
      "outputs": [],
      "payable": false,
      "stateMutability": "nonpayable",
      "type": "function"
    }
  ],
  "bytecode": "0x606060405242600155341561001357600080fd5b336000806101000a81548173ffffffffffffffffffffffffffffffffffffffff021916908373ffffffffffffffffffffffffffffffffffffffff160217905550336000806101000a81548173ffffffffffffffffffffffffffffffffffffffff021916908373ffffffffffffffffffffffffffffffffffffffff16021790555061009b6100f6565b604051809103906000f08015156100b157600080fd5b600960006101000a81548173ffffffffffffffffffffffffffffffffffffffff021916908373ffffffffffffffffffffffffffffffffffffffff160217905550610106565b604051611c828061116f83390190565b61105a806101156000396000f300606060405260043610610107576000357c0100000000000000000000000000000000000000000000000000000000900463ffffffff1680630935f49a1461010c5780631583066214610135578063447e41cf146101cf578063547c1b6a146101f8578063573db744146102215780635a000f3d146102365780635c7611341461025f57806361354128146102745780636864596c1461029d5780636d7e3df5146102c65780638da5cb5b146102ef5780639499e018146103445780639714aa9d146103595780639afb710f14610382578063c740d775146103ab578063ce5cc72b14610400578063dd84f32614610415578063edbbac731461043e578063f2fde38b146104b5575b600080fd5b341561011757600080fd5b61011f6104ee565b6040518082815260200191505060405180910390f35b341561014057600080fd5b6101cd600480803590602001908201803590602001908080602002602001604051908101604052809392919081815260200183836020028082843782019150505050505091908035906020019082018035906020019080806020026020016040519081016040528093929190818152602001838360200280828437820191505050505050919050506104f3565b005b34156101da57600080fd5b6101e26106af565b6040518082815260200191505060405180910390f35b341561020357600080fd5b61020b6106b4565b6040518082815260200191505060405180910390f35b341561022c57600080fd5b6102346106ba565b005b341561024157600080fd5b61024961082c565b6040518082815260200191505060405180910390f35b341561026a57600080fd5b610272610831565b005b341561027f57600080fd5b61028761098e565b6040518082815260200191505060405180910390f35b34156102a857600080fd5b6102b0610994565b6040518082815260200191505060405180910390f35b34156102d157600080fd5b6102d961099a565b6040518082815260200191505060405180910390f35b34156102fa57600080fd5b61030261099f565b604051808273ffffffffffffffffffffffffffffffffffffffff1673ffffffffffffffffffffffffffffffffffffffff16815260200191505060405180910390f35b341561034f57600080fd5b6103576109c4565b005b341561036457600080fd5b61036c610a59565b6040518082815260200191505060405180910390f35b341561038d57600080fd5b610395610a5f565b6040518082815260200191505060405180910390f35b34156103b657600080fd5b6103be610a64565b604051808273ffffffffffffffffffffffffffffffffffffffff1673ffffffffffffffffffffffffffffffffffffffff16815260200191505060405180910390f35b341561040b57600080fd5b610413610a8a565b005b341561042057600080fd5b610428610bfc565b6040518082815260200191505060405180910390f35b341561044957600080fd5b6104b3600480803573ffffffffffffffffffffffffffffffffffffffff1690602001909190803573ffffffffffffffffffffffffffffffffffffffff1690602001909190803573ffffffffffffffffffffffffffffffffffffffff16906020019091905050610c02565b005b34156104c057600080fd5b6104ec600480803573ffffffffffffffffffffffffffffffffffffffff16906020019091905050610e3f565b005b601481565b6000806000809054906101000a900473ffffffffffffffffffffffffffffffffffffffff1673ffffffffffffffffffffffffffffffffffffffff163373ffffffffffffffffffffffffffffffffffffffff1614151561055157600080fd5b8251845114151561056157600080fd5b6001544211151561057157600080fd5b600091505b83518210156106a957828281518110151561058d57fe5b9060200190602002015190506105a560085482610f94565b600881905550600960009054906101000a900473ffffffffffffffffffffffffffffffffffffffff1673ffffffffffffffffffffffffffffffffffffffff1663a9059cbb85848151811015156105f757fe5b90602001906020020151836040518363ffffffff167c0100000000000000000000000000000000000000000000000000000000028152600401808373ffffffffffffffffffffffffffffffffffffffff1673ffffffffffffffffffffffffffffffffffffffff16815260200182815260200192505050602060405180830381600087803b151561068657600080fd5b5af1151561069357600080fd5b5050506040518051905050816001019150610576565b50505050565b601481565b60015481565b6000809054906101000a900473ffffffffffffffffffffffffffffffffffffffff1673ffffffffffffffffffffffffffffffffffffffff163373ffffffffffffffffffffffffffffffffffffffff1614151561071557600080fd5b61071d610fb2565b4211151561072a57600080fd5b600960009054906101000a900473ffffffffffffffffffffffffffffffffffffffff1673ffffffffffffffffffffffffffffffffffffffff1663a9059cbb600260009054906101000a900473ffffffffffffffffffffffffffffffffffffffff166003546040518363ffffffff167c0100000000000000000000000000000000000000000000000000000000028152600401808373ffffffffffffffffffffffffffffffffffffffff1673ffffffffffffffffffffffffffffffffffffffff16815260200182815260200192505050602060405180830381600087803b151561081257600080fd5b5af1151561081f57600080fd5b5050506040518051905050565b600a81565b6000809054906101000a900473ffffffffffffffffffffffffffffffffffffffff1673ffffffffffffffffffffffffffffffffffffffff163373ffffffffffffffffffffffffffffffffffffffff1614151561088c57600080fd5b600960009054906101000a900473ffffffffffffffffffffffffffffffffffffffff1673ffffffffffffffffffffffffffffffffffffffff1663a9059cbb600660009054906101000a900473ffffffffffffffffffffffffffffffffffffffff166007546040518363ffffffff167c0100000000000000000000000000000000000000000000000000000000028152600401808373ffffffffffffffffffffffffffffffffffffffff1673ffffffffffffffffffffffffffffffffffffffff16815260200182815260200192505050602060405180830381600087803b151561097457600080fd5b5af1151561098157600080fd5b5050506040518051905050565b60085481565b60035481565b600181565b6000809054906101000a900473ffffffffffffffffffffffffffffffffffffffff1681565b6000809054906101000a900473ffffffffffffffffffffffffffffffffffffffff1673ffffffffffffffffffffffffffffffffffffffff163373ffffffffffffffffffffffffffffffffffffffff16141515610a1f57600080fd5b6000809054906101000a900473ffffffffffffffffffffffffffffffffffffffff1673ffffffffffffffffffffffffffffffffffffffff16ff5b60055481565b600281565b600960009054906101000a900473ffffffffffffffffffffffffffffffffffffffff1681565b6000809054906101000a900473ffffffffffffffffffffffffffffffffffffffff1673ffffffffffffffffffffffffffffffffffffffff163373ffffffffffffffffffffffffffffffffffffffff16141515610ae557600080fd5b610aed610fc5565b42111515610afa57600080fd5b600960009054906101000a900473ffffffffffffffffffffffffffffffffffffffff1673ffffffffffffffffffffffffffffffffffffffff1663a9059cbb600460009054906101000a900473ffffffffffffffffffffffffffffffffffffffff166005546040518363ffffffff167c0100000000000000000000000000000000000000000000000000000000028152600401808373ffffffffffffffffffffffffffffffffffffffff1673ffffffffffffffffffffffffffffffffffffffff16815260200182815260200192505050602060405180830381600087803b1515610be257600080fd5b5af11515610bef57600080fd5b5050506040518051905050565b60075481565b60008060009054906101000a900473ffffffffffffffffffffffffffffffffffffffff1673ffffffffffffffffffffffffffffffffffffffff163373ffffffffffffffffffffffffffffffffffffffff16141515610c5f57600080fd5b83600260006101000a81548173ffffffffffffffffffffffffffffffffffffffff021916908373ffffffffffffffffffffffffffffffffffffffff16021790555082600460006101000a81548173ffffffffffffffffffffffffffffffffffffffff021916908373ffffffffffffffffffffffffffffffffffffffff16021790555081600660006101000a81548173ffffffffffffffffffffffffffffffffffffffff021916908373ffffffffffffffffffffffffffffffffffffffff160217905550600960009054906101000a900473ffffffffffffffffffffffffffffffffffffffff1673ffffffffffffffffffffffffffffffffffffffff166318160ddd6040518163ffffffff167c0100000000000000000000000000000000000000000000000000000000028152600401602060405180830381600087803b1515610da757600080fd5b5af11515610db457600080fd5b505050604051805190509050610dd5610dce826014610fd8565b6064611013565b600381905550610df0610de9826014610fd8565b6064611013565b600581905550610e0b610e0482600a610fd8565b6064611013565b600781905550610e1f600354600554610f94565b600881905550610e33600854600754610f94565b60088190555050505050565b6000809054906101000a900473ffffffffffffffffffffffffffffffffffffffff1673ffffffffffffffffffffffffffffffffffffffff163373ffffffffffffffffffffffffffffffffffffffff16141515610e9a57600080fd5b600073ffffffffffffffffffffffffffffffffffffffff168173ffffffffffffffffffffffffffffffffffffffff1614151515610ed657600080fd5b8073ffffffffffffffffffffffffffffffffffffffff166000809054906101000a900473ffffffffffffffffffffffffffffffffffffffff1673ffffffffffffffffffffffffffffffffffffffff167f8be0079c531659141344cd1fd0a4f28419497f9722a3daafe3b4186f6b6457e060405160405180910390a3806000806101000a81548173ffffffffffffffffffffffffffffffffffffffff021916908373ffffffffffffffffffffffffffffffffffffffff16021790555050565b6000808284019050838110151515610fa857fe5b8091505092915050565b60006301e1338060020260015401905090565b60006301e1338060010260015401905090565b6000806000841415610fed576000915061100c565b8284029050828482811515610ffe57fe5b0414151561100857fe5b8091505b5092915050565b600080828481151561102157fe5b04905080915050929150505600a165627a7a72305820f2780c4130ad00c2ff8652ead0df786e9a5da6b3dcbc5490ac282c21a9e5b2f3002960606040526000600360146101000a81548160ff0219169083151502179055506040805190810160405280601081526020017f426f6f6b696e67546f6b656e556e697400000000000000000000000000000000815250600590805190602001906200006c929190620001ae565b506040805190810160405280600381526020017f425455000000000000000000000000000000000000000000000000000000000081525060069080519060200190620000ba929190620001ae565b506012600760006101000a81548160ff021916908360ff1602179055503415620000e357600080fd5b6a52b7d2dcc80cd2e400000033600360006101000a81548173ffffffffffffffffffffffffffffffffffffffff021916908373ffffffffffffffffffffffffffffffffffffffff1602179055506000811115156200014057600080fd5b80600481905550506a52b7d2dcc80cd2e40000006001819055506a52b7d2dcc80cd2e40000006000803373ffffffffffffffffffffffffffffffffffffffff1673ffffffffffffffffffffffffffffffffffffffff168152602001908152602001600020819055506200025d565b828054600181600116156101000203166002900490600052602060002090601f016020900481019282601f10620001f157805160ff191683800117855562000222565b8280016001018555821562000222579182015b828111156200022157825182559160200191906001019062000204565b5b50905062000231919062000235565b5090565b6200025a91905b80821115620002565760008160009055506001016200023c565b5090565b90565b611a15806200026d6000396000f300606060405260043610610107576000357c0100000000000000000000000000000000000000000000000000000000900463ffffffff16806305d2035b1461010c57806306fdde0314610139578063095ea7b3146101c757806318160ddd1461022157806323b872dd1461024a5780632ff2e9dc146102c3578063313ce567146102ec578063355274ea1461031b57806340c10f1914610344578063661884631461039e57806370a08231146103f85780637d64bcb414610445578063893d20e8146104725780638da5cb5b146104c757806395d89b411461051c578063a9059cbb146105aa578063d73dd62314610604578063dd62ed3e1461065e578063f2fde38b146106ca575b600080fd5b341561011757600080fd5b61011f610703565b604051808215151515815260200191505060405180910390f35b341561014457600080fd5b61014c610716565b6040518080602001828103825283818151815260200191508051906020019080838360005b8381101561018c578082015181840152602081019050610171565b50505050905090810190601f1680156101b95780820380516001836020036101000a031916815260200191505b509250505060405180910390f35b34156101d257600080fd5b610207600480803573ffffffffffffffffffffffffffffffffffffffff169060200190919080359060200190919050506107b4565b604051808215151515815260200191505060405180910390f35b341561022c57600080fd5b6102346108a6565b6040518082815260200191505060405180910390f35b341561025557600080fd5b6102a9600480803573ffffffffffffffffffffffffffffffffffffffff1690602001909190803573ffffffffffffffffffffffffffffffffffffffff169060200190919080359060200190919050506108b0565b604051808215151515815260200191505060405180910390f35b34156102ce57600080fd5b6102d6610c6a565b6040518082815260200191505060405180910390f35b34156102f757600080fd5b6102ff610c79565b604051808260ff1660ff16815260200191505060405180910390f35b341561032657600080fd5b61032e610c8c565b6040518082815260200191505060405180910390f35b341561034f57600080fd5b610384600480803573ffffffffffffffffffffffffffffffffffffffff16906020019091908035906020019091905050610c92565b604051808215151515815260200191505060405180910390f35b34156103a957600080fd5b6103de600480803573ffffffffffffffffffffffffffffffffffffffff16906020019091908035906020019091905050610d43565b604051808215151515815260200191505060405180910390f35b341561040357600080fd5b61042f600480803573ffffffffffffffffffffffffffffffffffffffff16906020019091905050610fd4565b6040518082815260200191505060405180910390f35b341561045057600080fd5b61045861101c565b604051808215151515815260200191505060405180910390f35b341561047d57600080fd5b6104856110e4565b604051808273ffffffffffffffffffffffffffffffffffffffff1673ffffffffffffffffffffffffffffffffffffffff16815260200191505060405180910390f35b34156104d257600080fd5b6104da61110e565b604051808273ffffffffffffffffffffffffffffffffffffffff1673ffffffffffffffffffffffffffffffffffffffff16815260200191505060405180910390f35b341561052757600080fd5b61052f611134565b6040518080602001828103825283818151815260200191508051906020019080838360005b8381101561056f578082015181840152602081019050610554565b50505050905090810190601f16801561059c5780820380516001836020036101000a031916815260200191505b509250505060405180910390f35b34156105b557600080fd5b6105ea600480803573ffffffffffffffffffffffffffffffffffffffff169060200190919080359060200190919050506111d2565b604051808215151515815260200191505060405180910390f35b341561060f57600080fd5b610644600480803573ffffffffffffffffffffffffffffffffffffffff169060200190919080359060200190919050506113f1565b604051808215151515815260200191505060405180910390f35b341561066957600080fd5b6106b4600480803573ffffffffffffffffffffffffffffffffffffffff1690602001909190803573ffffffffffffffffffffffffffffffffffffffff169060200190919050506115ed565b6040518082815260200191505060405180910390f35b34156106d557600080fd5b610701600480803573ffffffffffffffffffffffffffffffffffffffff16906020019091905050611674565b005b600360149054906101000a900460ff1681565b60058054600181600116156101000203166002900480601f0160208091040260200160405190810160405280929190818152602001828054600181600116156101000203166002900480156107ac5780601f10610781576101008083540402835291602001916107ac565b820191906000526020600020905b81548152906001019060200180831161078f57829003601f168201915b505050505081565b600081600260003373ffffffffffffffffffffffffffffffffffffffff1673ffffffffffffffffffffffffffffffffffffffff16815260200190815260200160002060008573ffffffffffffffffffffffffffffffffffffffff1673ffffffffffffffffffffffffffffffffffffffff168152602001908152602001600020819055508273ffffffffffffffffffffffffffffffffffffffff163373ffffffffffffffffffffffffffffffffffffffff167f8c5be1e5ebec7d5bd14f71427d1e84f3dd0314c0f7b2291e5b200ac8c7c3b925846040518082815260200191505060405180910390a36001905092915050565b6000600154905090565b60008073ffffffffffffffffffffffffffffffffffffffff168373ffffffffffffffffffffffffffffffffffffffff16141515156108ed57600080fd5b6000808573ffffffffffffffffffffffffffffffffffffffff1673ffffffffffffffffffffffffffffffffffffffff16815260200190815260200160002054821115151561093a57600080fd5b600260008573ffffffffffffffffffffffffffffffffffffffff1673ffffffffffffffffffffffffffffffffffffffff16815260200190815260200160002060003373ffffffffffffffffffffffffffffffffffffffff1673ffffffffffffffffffffffffffffffffffffffff1681526020019081526020016000205482111515156109c557600080fd5b610a16826000808773ffffffffffffffffffffffffffffffffffffffff1673ffffffffffffffffffffffffffffffffffffffff168152602001908152602001600020546117cc90919063ffffffff16565b6000808673ffffffffffffffffffffffffffffffffffffffff1673ffffffffffffffffffffffffffffffffffffffff16815260200190815260200160002081905550610aa9826000808673ffffffffffffffffffffffffffffffffffffffff1673ffffffffffffffffffffffffffffffffffffffff168152602001908152602001600020546117e590919063ffffffff16565b6000808573ffffffffffffffffffffffffffffffffffffffff1673ffffffffffffffffffffffffffffffffffffffff16815260200190815260200160002081905550610b7a82600260008773ffffffffffffffffffffffffffffffffffffffff1673ffffffffffffffffffffffffffffffffffffffff16815260200190815260200160002060003373ffffffffffffffffffffffffffffffffffffffff1673ffffffffffffffffffffffffffffffffffffffff168152602001908152602001600020546117cc90919063ffffffff16565b600260008673ffffffffffffffffffffffffffffffffffffffff1673ffffffffffffffffffffffffffffffffffffffff16815260200190815260200160002060003373ffffffffffffffffffffffffffffffffffffffff1673ffffffffffffffffffffffffffffffffffffffff168152602001908152602001600020819055508273ffffffffffffffffffffffffffffffffffffffff168473ffffffffffffffffffffffffffffffffffffffff167fddf252ad1be2c89b69c2b068fc378daa952ba7f163c4a11628f55a4df523b3ef846040518082815260200191505060405180910390a3600190509392505050565b6a52b7d2dcc80cd2e400000081565b600760009054906101000a900460ff1681565b60045481565b6000600360009054906101000a900473ffffffffffffffffffffffffffffffffffffffff1673ffffffffffffffffffffffffffffffffffffffff163373ffffffffffffffffffffffffffffffffffffffff16141515610cf057600080fd5b600360149054906101000a900460ff16151515610d0c57600080fd5b600454610d24836001546117e590919063ffffffff16565b11151515610d3157600080fd5b610d3b8383611803565b905092915050565b600080600260003373ffffffffffffffffffffffffffffffffffffffff1673ffffffffffffffffffffffffffffffffffffffff16815260200190815260200160002060008573ffffffffffffffffffffffffffffffffffffffff1673ffffffffffffffffffffffffffffffffffffffff16815260200190815260200160002054905080831115610e54576000600260003373ffffffffffffffffffffffffffffffffffffffff1673ffffffffffffffffffffffffffffffffffffffff16815260200190815260200160002060008673ffffffffffffffffffffffffffffffffffffffff1673ffffffffffffffffffffffffffffffffffffffff16815260200190815260200160002081905550610ee8565b610e6783826117cc90919063ffffffff16565b600260003373ffffffffffffffffffffffffffffffffffffffff1673ffffffffffffffffffffffffffffffffffffffff16815260200190815260200160002060008673ffffffffffffffffffffffffffffffffffffffff1673ffffffffffffffffffffffffffffffffffffffff168152602001908152602001600020819055505b8373ffffffffffffffffffffffffffffffffffffffff163373ffffffffffffffffffffffffffffffffffffffff167f8c5be1e5ebec7d5bd14f71427d1e84f3dd0314c0f7b2291e5b200ac8c7c3b925600260003373ffffffffffffffffffffffffffffffffffffffff1673ffffffffffffffffffffffffffffffffffffffff16815260200190815260200160002060008873ffffffffffffffffffffffffffffffffffffffff1673ffffffffffffffffffffffffffffffffffffffff168152602001908152602001600020546040518082815260200191505060405180910390a3600191505092915050565b60008060008373ffffffffffffffffffffffffffffffffffffffff1673ffffffffffffffffffffffffffffffffffffffff168152602001908152602001600020549050919050565b6000600360009054906101000a900473ffffffffffffffffffffffffffffffffffffffff1673ffffffffffffffffffffffffffffffffffffffff163373ffffffffffffffffffffffffffffffffffffffff1614151561107a57600080fd5b600360149054906101000a900460ff1615151561109657600080fd5b6001600360146101000a81548160ff0219169083151502179055507fae5184fba832cb2b1f702aca6117b8d265eaf03ad33eb133f19dde0f5920fa0860405160405180910390a16001905090565b6000600360009054906101000a900473ffffffffffffffffffffffffffffffffffffffff16905090565b600360009054906101000a900473ffffffffffffffffffffffffffffffffffffffff1681565b60068054600181600116156101000203166002900480601f0160208091040260200160405190810160405280929190818152602001828054600181600116156101000203166002900480156111ca5780601f1061119f576101008083540402835291602001916111ca565b820191906000526020600020905b8154815290600101906020018083116111ad57829003601f168201915b505050505081565b60008073ffffffffffffffffffffffffffffffffffffffff168373ffffffffffffffffffffffffffffffffffffffff161415151561120f57600080fd5b6000803373ffffffffffffffffffffffffffffffffffffffff1673ffffffffffffffffffffffffffffffffffffffff16815260200190815260200160002054821115151561125c57600080fd5b6112ad826000803373ffffffffffffffffffffffffffffffffffffffff1673ffffffffffffffffffffffffffffffffffffffff168152602001908152602001600020546117cc90919063ffffffff16565b6000803373ffffffffffffffffffffffffffffffffffffffff1673ffffffffffffffffffffffffffffffffffffffff16815260200190815260200160002081905550611340826000808673ffffffffffffffffffffffffffffffffffffffff1673ffffffffffffffffffffffffffffffffffffffff168152602001908152602001600020546117e590919063ffffffff16565b6000808573ffffffffffffffffffffffffffffffffffffffff1673ffffffffffffffffffffffffffffffffffffffff168152602001908152602001600020819055508273ffffffffffffffffffffffffffffffffffffffff163373ffffffffffffffffffffffffffffffffffffffff167fddf252ad1be2c89b69c2b068fc378daa952ba7f163c4a11628f55a4df523b3ef846040518082815260200191505060405180910390a36001905092915050565b600061148282600260003373ffffffffffffffffffffffffffffffffffffffff1673ffffffffffffffffffffffffffffffffffffffff16815260200190815260200160002060008673ffffffffffffffffffffffffffffffffffffffff1673ffffffffffffffffffffffffffffffffffffffff168152602001908152602001600020546117e590919063ffffffff16565b600260003373ffffffffffffffffffffffffffffffffffffffff1673ffffffffffffffffffffffffffffffffffffffff16815260200190815260200160002060008573ffffffffffffffffffffffffffffffffffffffff1673ffffffffffffffffffffffffffffffffffffffff168152602001908152602001600020819055508273ffffffffffffffffffffffffffffffffffffffff163373ffffffffffffffffffffffffffffffffffffffff167f8c5be1e5ebec7d5bd14f71427d1e84f3dd0314c0f7b2291e5b200ac8c7c3b925600260003373ffffffffffffffffffffffffffffffffffffffff1673ffffffffffffffffffffffffffffffffffffffff16815260200190815260200160002060008773ffffffffffffffffffffffffffffffffffffffff1673ffffffffffffffffffffffffffffffffffffffff168152602001908152602001600020546040518082815260200191505060405180910390a36001905092915050565b6000600260008473ffffffffffffffffffffffffffffffffffffffff1673ffffffffffffffffffffffffffffffffffffffff16815260200190815260200160002060008373ffffffffffffffffffffffffffffffffffffffff1673ffffffffffffffffffffffffffffffffffffffff16815260200190815260200160002054905092915050565b600360009054906101000a900473ffffffffffffffffffffffffffffffffffffffff1673ffffffffffffffffffffffffffffffffffffffff163373ffffffffffffffffffffffffffffffffffffffff161415156116d057600080fd5b600073ffffffffffffffffffffffffffffffffffffffff168173ffffffffffffffffffffffffffffffffffffffff161415151561170c57600080fd5b8073ffffffffffffffffffffffffffffffffffffffff16600360009054906101000a900473ffffffffffffffffffffffffffffffffffffffff1673ffffffffffffffffffffffffffffffffffffffff167f8be0079c531659141344cd1fd0a4f28419497f9722a3daafe3b4186f6b6457e060405160405180910390a380600360006101000a81548173ffffffffffffffffffffffffffffffffffffffff021916908373ffffffffffffffffffffffffffffffffffffffff16021790555050565b60008282111515156117da57fe5b818303905092915050565b60008082840190508381101515156117f957fe5b8091505092915050565b6000600360009054906101000a900473ffffffffffffffffffffffffffffffffffffffff1673ffffffffffffffffffffffffffffffffffffffff163373ffffffffffffffffffffffffffffffffffffffff1614151561186157600080fd5b600360149054906101000a900460ff1615151561187d57600080fd5b611892826001546117e590919063ffffffff16565b6001819055506118e9826000808673ffffffffffffffffffffffffffffffffffffffff1673ffffffffffffffffffffffffffffffffffffffff168152602001908152602001600020546117e590919063ffffffff16565b6000808573ffffffffffffffffffffffffffffffffffffffff1673ffffffffffffffffffffffffffffffffffffffff168152602001908152602001600020819055508273ffffffffffffffffffffffffffffffffffffffff167f0f6798a560793a54c3bcfe86a93cde1e73087d944c0ea20544137d4121396885836040518082815260200191505060405180910390a28273ffffffffffffffffffffffffffffffffffffffff16600073ffffffffffffffffffffffffffffffffffffffff167fddf252ad1be2c89b69c2b068fc378daa952ba7f163c4a11628f55a4df523b3ef846040518082815260200191505060405180910390a360019050929150505600a165627a7a72305820dfcf2708457b57ffa1af7cc0b74b7283791951d5a3e4ab5f1ef7d334dec4e3a30029",
  "source": "pragma solidity ^0.4.0;\n\nimport \"./BTU.sol\";\n\nimport \"zeppelin-solidity/contracts/ownership/Ownable.sol\";\nimport \"zeppelin-solidity/contracts/math/SafeMath.sol\";\n\n/* This contract is usable by the BTU's owner only unless ownership is transferred.\n * In that case the owner of the BTU has to approve every transfer.\n */\ncontract BTUTokenSale is Ownable {\n    // uint256 public constant ICO_START_DATE = 1524009600; // 18/04/2018 00:00 Start date to be uncommented when deployed\n    uint256 public SALE_START_DATE = now; // For tests only\n\n    uint public constant FROST_COMPANY_FACTOR = 20;  // 20% reserved for the company\n    uint public constant FROST_FOUNDERS_FACTOR = 20; // 20% reserved for the founders\n    uint public constant FROST_BOUNTY_FACTOR = 10;   // 10% reserved for bounty\n\n    uint public constant FROSTED_COMPANY_LOCKUP = 2;    // 2 years lockup\n    uint public constant FROSTED_FOUNDERS_LOCKUP = 1;   // 1 year lockup\n\n    address private companyAddress;\n    uint256 public companyReserved;\n\n    address private foundersAddress;\n    uint256 public foundersReserved;\n\n    address private bountyAddress;\n    uint256 public bountyReserved;\n\n    uint256 public assignedTokens;\n\n    address public btuToken;\n\n    function BTUTokenSale() public {\n        owner = msg.sender;\n        btuToken = new BTU();\n    }\n\n    /* Assignment of tokens has to be done by the owner of the BTUToken\n     * It is done in batches of addreses with corresponding amounts\n     * For the transfer to work the owner has to approve the transfer for each address first\n     */\n    function assignTokens(address[] _batchAddr, uint[] _batchAmount) public onlyOwner {\n        // Verify that the array of amounts has the same length as the array of addresses to send it to\n        require(_batchAddr.length == _batchAmount.length);\n        // Verify that the sale has started\n        require(now > SALE_START_DATE);\n\n        for (uint i = 0; i < _batchAddr.length; ++i) {\n            uint amount = _batchAmount[i];\n            assignedTokens = SafeMath.add(assignedTokens, amount);\n            BTU(btuToken).transfer(_batchAddr[i], amount);\n        }\n    }\n\n    /* Sets the frosted account for the company, the founders and the bounty */\n    function setupFrostedAccounts(address _companyAddress,\n                                  address _foundersAddress,\n                                  address _bountyAddress) public onlyOwner {\n        companyAddress = _companyAddress;\n        foundersAddress = _foundersAddress;\n        bountyAddress = _bountyAddress;\n        // Reserve the frosted tokens\n        uint256 initialSupply = BTU(btuToken).totalSupply();\n        companyReserved = SafeMath.div(SafeMath.mul(initialSupply, FROST_COMPANY_FACTOR), 100);\n        foundersReserved = SafeMath.div(SafeMath.mul(initialSupply, FROST_FOUNDERS_FACTOR), 100);\n        bountyReserved = SafeMath.div(SafeMath.mul(initialSupply, FROST_BOUNTY_FACTOR), 100);\n        // Keep track of the number of assigned tokens\n        assignedTokens = SafeMath.add(companyReserved, foundersReserved);\n        assignedTokens = SafeMath.add(assignedTokens, bountyReserved);\n    }\n\n    // Frost period for the frosted company tokens\n    function defrostCompanyDate() internal view returns(uint256){\n        return SALE_START_DATE + FROSTED_COMPANY_LOCKUP * 1 years;\n    }\n\n    // Defrost company reserved tokens\n    function defrostCompanyTokens() public onlyOwner {\n        require(now > defrostCompanyDate());\n        BTU(btuToken).transfer(companyAddress, companyReserved);\n    }\n\n    // Frost period for the frosted founders tokens\n    function defrostFoundersDate() internal view returns(uint256){\n        return SALE_START_DATE + FROSTED_FOUNDERS_LOCKUP * 1 years;\n    }\n\n    // Defrost founders reserved tokens (only usable after the frost period is over)\n    function defrostFoundersTokens() public onlyOwner {\n        require(now > defrostFoundersDate());\n        BTU(btuToken).transfer(foundersAddress, foundersReserved);\n    }\n\n    // No frost period for the bounty, the owner can defrost at will\n    function defrostBountyTokens() public onlyOwner {\n        BTU(btuToken).transfer(bountyAddress, bountyReserved);\n    }\n\n    // Selfdestruct this contract\n    function destructContract() public onlyOwner {\n        selfdestruct(owner);\n    }\n}\n",
  "sourcePath": "/home/admin/Documents/Projects/BTUToken/btuprotocol-implementation-earth/BTUToken/contracts/BTUTokenSale.sol",
  "compiler": {
    "name": "solc",
    "version": "0.4.21+commit.dfe3193c.Emscripten.clang"
  },
  "schemaVersion": "2.0.0",
  "updatedAt": "2018-04-08T12:54:09.876Z"
}